{
  "_format": "hh-sol-artifact-1",
  "contractName": "ERC721ABurnableStartTokenIdMock",
  "sourceName": "contracts/mocks/ERC721ABurnableStartTokenIdMock.sol",
  "abi": [
    {
      "inputs": [
        {
          "internalType": "string",
          "name": "name_",
          "type": "string"
        },
        {
          "internalType": "string",
          "name": "symbol_",
          "type": "string"
        },
        {
          "internalType": "uint256",
          "name": "startTokenId_",
          "type": "uint256"
        }
      ],
      "stateMutability": "nonpayable",
      "type": "constructor"
    },
    {
      "inputs": [],
      "name": "ApprovalCallerNotOwnerNorApproved",
      "type": "error"
    },
    {
      "inputs": [],
      "name": "ApprovalQueryForNonexistentToken",
      "type": "error"
    },
    {
      "inputs": [],
      "name": "ApprovalToCurrentOwner",
      "type": "error"
    },
    {
      "inputs": [],
      "name": "ApproveToCaller",
      "type": "error"
    },
    {
      "inputs": [],
      "name": "BalanceQueryForZeroAddress",
      "type": "error"
    },
    {
      "inputs": [],
      "name": "MintToZeroAddress",
      "type": "error"
    },
    {
      "inputs": [],
      "name": "MintZeroQuantity",
      "type": "error"
    },
    {
      "inputs": [],
      "name": "OwnerQueryForNonexistentToken",
      "type": "error"
    },
    {
      "inputs": [],
      "name": "TransferCallerNotOwnerNorApproved",
      "type": "error"
    },
    {
      "inputs": [],
      "name": "TransferFromIncorrectOwner",
      "type": "error"
    },
    {
      "inputs": [],
      "name": "TransferToNonERC721ReceiverImplementer",
      "type": "error"
    },
    {
      "inputs": [],
      "name": "TransferToZeroAddress",
      "type": "error"
    },
    {
      "inputs": [],
      "name": "URIQueryForNonexistentToken",
      "type": "error"
    },
    {
      "anonymous": false,
      "inputs": [
        {
          "indexed": true,
          "internalType": "address",
          "name": "owner",
          "type": "address"
        },
        {
          "indexed": true,
          "internalType": "address",
          "name": "approved",
          "type": "address"
        },
        {
          "indexed": true,
          "internalType": "uint256",
          "name": "tokenId",
          "type": "uint256"
        }
      ],
      "name": "Approval",
      "type": "event"
    },
    {
      "anonymous": false,
      "inputs": [
        {
          "indexed": true,
          "internalType": "address",
          "name": "owner",
          "type": "address"
        },
        {
          "indexed": true,
          "internalType": "address",
          "name": "operator",
          "type": "address"
        },
        {
          "indexed": false,
          "internalType": "bool",
          "name": "approved",
          "type": "bool"
        }
      ],
      "name": "ApprovalForAll",
      "type": "event"
    },
    {
      "anonymous": false,
      "inputs": [
        {
          "indexed": true,
          "internalType": "address",
          "name": "from",
          "type": "address"
        },
        {
          "indexed": true,
          "internalType": "address",
          "name": "to",
          "type": "address"
        },
        {
          "indexed": true,
          "internalType": "uint256",
          "name": "tokenId",
          "type": "uint256"
        }
      ],
      "name": "Transfer",
      "type": "event"
    },
    {
      "inputs": [
        {
          "internalType": "address",
          "name": "to",
          "type": "address"
        },
        {
          "internalType": "uint256",
          "name": "tokenId",
          "type": "uint256"
        }
      ],
      "name": "approve",
      "outputs": [],
      "stateMutability": "nonpayable",
      "type": "function"
    },
    {
      "inputs": [
        {
          "internalType": "address",
          "name": "owner",
          "type": "address"
        }
      ],
      "name": "balanceOf",
      "outputs": [
        {
          "internalType": "uint256",
          "name": "",
          "type": "uint256"
        }
      ],
      "stateMutability": "view",
      "type": "function"
    },
    {
      "inputs": [
        {
          "internalType": "uint256",
          "name": "tokenId",
          "type": "uint256"
        }
      ],
      "name": "burn",
      "outputs": [],
      "stateMutability": "nonpayable",
      "type": "function"
    },
    {
      "inputs": [
        {
          "internalType": "uint256",
          "name": "tokenId",
          "type": "uint256"
        }
      ],
      "name": "exists",
      "outputs": [
        {
          "internalType": "bool",
          "name": "",
          "type": "bool"
        }
      ],
      "stateMutability": "view",
      "type": "function"
    },
    {
      "inputs": [
        {
          "internalType": "uint256",
          "name": "tokenId",
          "type": "uint256"
        }
      ],
      "name": "getApproved",
      "outputs": [
        {
          "internalType": "address",
          "name": "",
          "type": "address"
        }
      ],
      "stateMutability": "view",
      "type": "function"
    },
    {
      "inputs": [
        {
          "internalType": "uint256",
          "name": "index",
          "type": "uint256"
        }
      ],
      "name": "getOwnershipAt",
      "outputs": [
        {
          "components": [
            {
              "internalType": "address",
              "name": "addr",
              "type": "address"
            },
            {
              "internalType": "uint64",
              "name": "startTimestamp",
              "type": "uint64"
            },
            {
              "internalType": "bool",
              "name": "burned",
              "type": "bool"
            }
          ],
          "internalType": "struct IERC721A.TokenOwnership",
          "name": "",
          "type": "tuple"
        }
      ],
      "stateMutability": "view",
      "type": "function"
    },
    {
      "inputs": [
        {
          "internalType": "address",
          "name": "owner",
          "type": "address"
        },
        {
          "internalType": "address",
          "name": "operator",
          "type": "address"
        }
      ],
      "name": "isApprovedForAll",
      "outputs": [
        {
          "internalType": "bool",
          "name": "",
          "type": "bool"
        }
      ],
      "stateMutability": "view",
      "type": "function"
    },
    {
      "inputs": [],
      "name": "mintedSoFar",
      "outputs": [
        {
          "internalType": "uint256",
          "name": "",
          "type": "uint256"
        }
      ],
      "stateMutability": "view",
      "type": "function"
    },
    {
      "inputs": [],
      "name": "name",
      "outputs": [
        {
          "internalType": "string",
          "name": "",
          "type": "string"
        }
      ],
      "stateMutability": "view",
      "type": "function"
    },
    {
      "inputs": [
        {
          "internalType": "address",
          "name": "owner",
          "type": "address"
        }
      ],
      "name": "numberBurned",
      "outputs": [
        {
          "internalType": "uint256",
          "name": "",
          "type": "uint256"
        }
      ],
      "stateMutability": "view",
      "type": "function"
    },
    {
      "inputs": [
        {
          "internalType": "uint256",
          "name": "tokenId",
          "type": "uint256"
        }
      ],
      "name": "ownerOf",
      "outputs": [
        {
          "internalType": "address",
          "name": "",
          "type": "address"
        }
      ],
      "stateMutability": "view",
      "type": "function"
    },
    {
      "inputs": [
        {
          "internalType": "address",
          "name": "to",
          "type": "address"
        },
        {
          "internalType": "uint256",
          "name": "quantity",
          "type": "uint256"
        }
      ],
      "name": "safeMint",
      "outputs": [],
      "stateMutability": "nonpayable",
      "type": "function"
    },
    {
      "inputs": [
        {
          "internalType": "address",
          "name": "from",
          "type": "address"
        },
        {
          "internalType": "address",
          "name": "to",
          "type": "address"
        },
        {
          "internalType": "uint256",
          "name": "tokenId",
          "type": "uint256"
        }
      ],
      "name": "safeTransferFrom",
      "outputs": [],
      "stateMutability": "nonpayable",
      "type": "function"
    },
    {
      "inputs": [
        {
          "internalType": "address",
          "name": "from",
          "type": "address"
        },
        {
          "internalType": "address",
          "name": "to",
          "type": "address"
        },
        {
          "internalType": "uint256",
          "name": "tokenId",
          "type": "uint256"
        },
        {
          "internalType": "bytes",
          "name": "_data",
          "type": "bytes"
        }
      ],
      "name": "safeTransferFrom",
      "outputs": [],
      "stateMutability": "nonpayable",
      "type": "function"
    },
    {
      "inputs": [
        {
          "internalType": "address",
          "name": "operator",
          "type": "address"
        },
        {
          "internalType": "bool",
          "name": "approved",
          "type": "bool"
        }
      ],
      "name": "setApprovalForAll",
      "outputs": [],
      "stateMutability": "nonpayable",
      "type": "function"
    },
    {
      "inputs": [],
      "name": "startTokenId",
      "outputs": [
        {
          "internalType": "uint256",
          "name": "",
          "type": "uint256"
        }
      ],
      "stateMutability": "view",
      "type": "function"
    },
    {
      "inputs": [
        {
          "internalType": "bytes4",
          "name": "interfaceId",
          "type": "bytes4"
        }
      ],
      "name": "supportsInterface",
      "outputs": [
        {
          "internalType": "bool",
          "name": "",
          "type": "bool"
        }
      ],
      "stateMutability": "view",
      "type": "function"
    },
    {
      "inputs": [],
      "name": "symbol",
      "outputs": [
        {
          "internalType": "string",
          "name": "",
          "type": "string"
        }
      ],
      "stateMutability": "view",
      "type": "function"
    },
    {
      "inputs": [
        {
          "internalType": "uint256",
          "name": "tokenId",
          "type": "uint256"
        }
      ],
      "name": "tokenURI",
      "outputs": [
        {
          "internalType": "string",
          "name": "",
          "type": "string"
        }
      ],
      "stateMutability": "view",
      "type": "function"
    },
    {
      "inputs": [],
      "name": "totalBurned",
      "outputs": [
        {
          "internalType": "uint256",
          "name": "",
          "type": "uint256"
        }
      ],
      "stateMutability": "view",
      "type": "function"
    },
    {
      "inputs": [],
      "name": "totalMinted",
      "outputs": [
        {
          "internalType": "uint256",
          "name": "",
          "type": "uint256"
        }
      ],
      "stateMutability": "view",
      "type": "function"
    },
    {
      "inputs": [],
      "name": "totalSupply",
      "outputs": [
        {
          "internalType": "uint256",
          "name": "",
          "type": "uint256"
        }
      ],
      "stateMutability": "view",
      "type": "function"
    },
    {
      "inputs": [
        {
          "internalType": "address",
          "name": "from",
          "type": "address"
        },
        {
          "internalType": "address",
          "name": "to",
          "type": "address"
        },
        {
          "internalType": "uint256",
          "name": "tokenId",
          "type": "uint256"
        }
      ],
      "name": "transferFrom",
      "outputs": [],
      "stateMutability": "nonpayable",
      "type": "function"
    }
  ],
  "bytecode": "0x60806040523480156200001157600080fd5b50604051620015ac380380620015ac8339810160408190526200003491620001f4565b6000819055825183908390829082906200005690600390602085019062000081565b5080516200006c90600490602084019062000081565b5060005460015550620002a495505050505050565b8280546200008f9062000267565b90600052602060002090601f016020900481019282620000b35760008555620000fe565b82601f10620000ce57805160ff1916838001178555620000fe565b82800160010185558215620000fe579182015b82811115620000fe578251825591602001919060010190620000e1565b506200010c92915062000110565b5090565b5b808211156200010c576000815560010162000111565b634e487b7160e01b600052604160045260246000fd5b600082601f8301126200014f57600080fd5b81516001600160401b03808211156200016c576200016c62000127565b604051601f8301601f19908116603f0116810190828211818310171562000197576200019762000127565b81604052838152602092508683858801011115620001b457600080fd5b600091505b83821015620001d85785820183015181830184015290820190620001b9565b83821115620001ea5760008385830101525b9695505050505050565b6000806000606084860312156200020a57600080fd5b83516001600160401b03808211156200022257600080fd5b62000230878388016200013d565b945060208601519150808211156200024757600080fd5b5062000256868287016200013d565b925050604084015190509250925092565b600181811c908216806200027c57607f821691505b602082108114156200029e57634e487b7160e01b600052602260045260246000fd5b50919050565b6112f880620002b46000396000f3fe608060405234801561001057600080fd5b506004361061018d5760003560e01c806370a08231116100e3578063b88d4fde1161008c578063e6798baa11610066578063e6798baa1461031e578063e985e9c514610327578063f25236331461036357600080fd5b8063b88d4fde146102f0578063c87b56dd14610303578063d89135cd1461031657600080fd5b8063a1448194116100bd578063a1448194146102be578063a22cb465146102d1578063a2309ff8146102e457600080fd5b806370a082311461029b57806393bd3da5146102ae57806395d89b41146102b657600080fd5b806323b872dd1161014557806342966c681161011f57806342966c68146102625780634f558e79146102755780636352211e1461028857600080fd5b806323b872dd146102295780632478d6391461023c57806342842e0e1461024f57600080fd5b8063081812fc11610176578063081812fc146101cf578063095ea7b3146101fa57806318160ddd1461020f57600080fd5b806301ffc9a71461019257806306fdde03146101ba575b600080fd5b6101a56101a0366004610f60565b6103ad565b60405190151581526020015b60405180910390f35b6101c26103ff565b6040516101b19190610fd5565b6101e26101dd366004610fe8565b610491565b6040516001600160a01b0390911681526020016101b1565b61020d61020836600461101d565b6104d5565b005b60005460025460015403035b6040519081526020016101b1565b61020d610237366004611047565b6105b5565b61021b61024a366004611083565b6105c5565b61020d61025d366004611047565b6105f3565b61020d610270366004610fe8565b61060e565b6101a5610283366004610fe8565b61061c565b6101e2610296366004610fe8565b610627565b61021b6102a9366004611083565b610632565b60015461021b565b6101c2610678565b61020d6102cc36600461101d565b610687565b61020d6102df36600461109e565b610695565b6000546001540361021b565b61020d6102fe3660046110f0565b610730565b6101c2610311366004610fe8565b61077a565b61021b61080c565b61021b60005481565b6101a56103353660046111cc565b6001600160a01b03918216600090815260086020908152604080832093909416825291909152205460ff1690565b610376610371366004610fe8565b610817565b6040805182516001600160a01b0316815260208084015167ffffffffffffffff1690820152918101511515908201526060016101b1565b60006301ffc9a760e01b6001600160e01b0319831614806103de57506380ac58cd60e01b6001600160e01b03198316145b806103f95750635b5e139f60e01b6001600160e01b03198316145b92915050565b60606003805461040e906111ff565b80601f016020809104026020016040519081016040528092919081815260200182805461043a906111ff565b80156104875780601f1061045c57610100808354040283529160200191610487565b820191906000526020600020905b81548152906001019060200180831161046a57829003601f168201915b5050505050905090565b600061049c8261083d565b6104b9576040516333d1c03960e21b815260040160405180910390fd5b506000908152600760205260409020546001600160a01b031690565b60006104e082610879565b9050806001600160a01b0316836001600160a01b031614156105155760405163250fdee360e21b815260040160405180910390fd5b336001600160a01b0382161461054c5761052f8133610335565b61054c576040516367d9dca160e11b815260040160405180910390fd5b600082815260076020526040808220805473ffffffffffffffffffffffffffffffffffffffff19166001600160a01b0387811691821790925591518593918516917f8c5be1e5ebec7d5bd14f71427d1e84f3dd0314c0f7b2291e5b200ac8c7c3b92591a4505050565b6105c08383836108e9565b505050565b60006103f9826001600160a01b031660009081526006602052604090205460801c67ffffffffffffffff1690565b6105c083838360405180602001604052806000815250610730565b610619816001610aa6565b50565b60006103f98261083d565b60006103f982610879565b600081610652576040516323d3ad8160e21b815260040160405180910390fd5b506001600160a01b031660009081526006602052604090205467ffffffffffffffff1690565b60606004805461040e906111ff565b6106918282610c27565b5050565b6001600160a01b0382163314156106bf5760405163b06307db60e01b815260040160405180910390fd5b3360008181526008602090815260408083206001600160a01b03871680855290835292819020805460ff191686151590811790915590519081529192917f17307eab39ab6107e8899845ad3d59bd9653f200f220920489ca2b5937696c31910160405180910390a35050565b905090565b61073b8484846108e9565b6001600160a01b0383163b156107745761075784848484610c41565b610774576040516368d2bf6b60e11b815260040160405180910390fd5b50505050565b60606107858261083d565b6107a257604051630a14c4b560e41b815260040160405180910390fd5b60006107b960408051602081019091526000815290565b90508051600014156107da5760405180602001604052806000815250610805565b806107e484610d29565b6040516020016107f592919061123a565b6040516020818303038152906040525b9392505050565b600061072b60025490565b60408051606081018252600080825260208201819052918101919091526103f982610d78565b60008161084960005490565b11158015610858575060015482105b80156103f9575050600090815260056020526040902054600160e01b161590565b6000818061088660005490565b116108d0576001548110156108d057600081815260056020526040902054600160e01b81166108ce575b806108055750600019016000818152600560205260409020546108b0565b505b604051636f96cda160e11b815260040160405180910390fd5b60006108f482610879565b9050836001600160a01b0316816001600160a01b0316146109275760405162a1148160e81b815260040160405180910390fd5b6000828152600760205260408120546001600160a01b039081169190861633148061095757506109578633610335565b8061096a57506001600160a01b03821633145b90508061098a57604051632ce44b5f60e11b815260040160405180910390fd5b846109a857604051633a954ecd60e21b815260040160405180910390fd5b81156109d8576000848152600760205260409020805473ffffffffffffffffffffffffffffffffffffffff191690555b6001600160a01b03868116600090815260066020908152604080832080546000190190559288168252828220805460010190558682526005905220600160e11b4260a01b871781179091558316610a5d5760018401600081815260056020526040902054610a5b576001548114610a5b5760008181526005602052604090208490555b505b83856001600160a01b0316876001600160a01b03167fddf252ad1be2c89b69c2b068fc378daa952ba7f163c4a11628f55a4df523b3ef60405160405180910390a4505050505050565b6000610ab183610879565b60008481526007602052604090205490915081906001600160a01b03168315610b27576000336001600160a01b0384161480610af25750610af28333610335565b80610b0557506001600160a01b03821633145b905080610b2557604051632ce44b5f60e11b815260040160405180910390fd5b505b8015610b57576000858152600760205260409020805473ffffffffffffffffffffffffffffffffffffffff191690555b6001600160a01b038216600090815260066020908152604080832080546fffffffffffffffffffffffffffffffff01905587835260059091529020600360e01b4260a01b8417179055600160e11b8316610bdf5760018501600081815260056020526040902054610bdd576001548114610bdd5760008181526005602052604090208490555b505b60405185906000906001600160a01b038516907fddf252ad1be2c89b69c2b068fc378daa952ba7f163c4a11628f55a4df523b3ef908390a45050600280546001019055505050565b610691828260405180602001604052806000815250610de3565b604051630a85bd0160e11b81526000906001600160a01b0385169063150b7a0290610c76903390899088908890600401611269565b6020604051808303816000875af1925050508015610cb1575060408051601f3d908101601f19168201909252610cae918101906112a5565b60015b610d0c573d808015610cdf576040519150601f19603f3d011682016040523d82523d6000602084013e610ce4565b606091505b508051610d04576040516368d2bf6b60e11b815260040160405180910390fd5b805181602001fd5b6001600160e01b031916630a85bd0160e11b149050949350505050565b604080516080810191829052607f0190826030600a8206018353600a90045b8015610d6657600183039250600a81066030018353600a9004610d48565b50819003601f19909101908152919050565b60408051606081018252600080825260208201819052918101919091526000828152600560205260409020546103f990604080516060810182526001600160a01b038316815260a083901c67ffffffffffffffff166020820152600160e01b90921615159082015290565b60015483610e0357604051622e076360e81b815260040160405180910390fd5b82610e215760405163b562e8dd60e01b815260040160405180910390fd5b6001600160a01b03841660008181526006602090815260408083208054680100000000000000018902019055848352600590915290204260a01b86176001861460e11b1790558190818501903b15610ef6575b60405182906001600160a01b038816906000907fddf252ad1be2c89b69c2b068fc378daa952ba7f163c4a11628f55a4df523b3ef908290a4610ebf6000878480600101955087610c41565b610edc576040516368d2bf6b60e11b815260040160405180910390fd5b808210610e74578260015414610ef157600080fd5b610f3b565b5b6040516001830192906001600160a01b038816906000907fddf252ad1be2c89b69c2b068fc378daa952ba7f163c4a11628f55a4df523b3ef908290a4808210610ef7575b50600155610774600085838684565b6001600160e01b03198116811461061957600080fd5b600060208284031215610f7257600080fd5b813561080581610f4a565b60005b83811015610f98578181015183820152602001610f80565b838111156107745750506000910152565b60008151808452610fc1816020860160208601610f7d565b601f01601f19169290920160200192915050565b6020815260006108056020830184610fa9565b600060208284031215610ffa57600080fd5b5035919050565b80356001600160a01b038116811461101857600080fd5b919050565b6000806040838503121561103057600080fd5b61103983611001565b946020939093013593505050565b60008060006060848603121561105c57600080fd5b61106584611001565b925061107360208501611001565b9150604084013590509250925092565b60006020828403121561109557600080fd5b61080582611001565b600080604083850312156110b157600080fd5b6110ba83611001565b9150602083013580151581146110cf57600080fd5b809150509250929050565b634e487b7160e01b600052604160045260246000fd5b6000806000806080858703121561110657600080fd5b61110f85611001565b935061111d60208601611001565b925060408501359150606085013567ffffffffffffffff8082111561114157600080fd5b818701915087601f83011261115557600080fd5b813581811115611167576111676110da565b604051601f8201601f19908116603f0116810190838211818310171561118f5761118f6110da565b816040528281528a60208487010111156111a857600080fd5b82602086016020830137600060208483010152809550505050505092959194509250565b600080604083850312156111df57600080fd5b6111e883611001565b91506111f660208401611001565b90509250929050565b600181811c9082168061121357607f821691505b6020821081141561123457634e487b7160e01b600052602260045260246000fd5b50919050565b6000835161124c818460208801610f7d565b835190830190611260818360208801610f7d565b01949350505050565b60006001600160a01b0380871683528086166020840152508360408301526080606083015261129b6080830184610fa9565b9695505050505050565b6000602082840312156112b757600080fd5b815161080581610f4a56fea264697066735822122085c9aed696621aad9a829cdec28c35ad89ffb508c3a1ad14c5ee6c0033840d5664736f6c634300080b0033",
  "linkReferences": {},
  "deployedLinkReferences": {}
}