{
  "_format": "hh-sol-artifact-1",
  "contractName": "ERC721A",
  "sourceName": "contracts/ERC721A.sol",
  "abi": [
    {
      "inputs": [
        {
          "internalType": "string",
          "name": "name_",
          "type": "string"
        },
        {
          "internalType": "string",
          "name": "symbol_",
          "type": "string"
        }
      ],
      "stateMutability": "nonpayable",
      "type": "constructor"
    },
    {
      "inputs": [],
      "name": "ApprovalCallerNotOwnerNorApproved",
      "type": "error"
    },
    {
      "inputs": [],
      "name": "ApprovalQueryForNonexistentToken",
      "type": "error"
    },
    {
      "inputs": [],
      "name": "ApprovalToCurrentOwner",
      "type": "error"
    },
    {
      "inputs": [],
      "name": "ApproveToCaller",
      "type": "error"
    },
    {
      "inputs": [],
      "name": "BalanceQueryForZeroAddress",
      "type": "error"
    },
    {
      "inputs": [],
      "name": "MintToZeroAddress",
      "type": "error"
    },
    {
      "inputs": [],
      "name": "MintZeroQuantity",
      "type": "error"
    },
    {
      "inputs": [],
      "name": "OwnerQueryForNonexistentToken",
      "type": "error"
    },
    {
      "inputs": [],
      "name": "TransferCallerNotOwnerNorApproved",
      "type": "error"
    },
    {
      "inputs": [],
      "name": "TransferFromIncorrectOwner",
      "type": "error"
    },
    {
      "inputs": [],
      "name": "TransferToNonERC721ReceiverImplementer",
      "type": "error"
    },
    {
      "inputs": [],
      "name": "TransferToZeroAddress",
      "type": "error"
    },
    {
      "inputs": [],
      "name": "URIQueryForNonexistentToken",
      "type": "error"
    },
    {
      "anonymous": false,
      "inputs": [
        {
          "indexed": true,
          "internalType": "address",
          "name": "owner",
          "type": "address"
        },
        {
          "indexed": true,
          "internalType": "address",
          "name": "approved",
          "type": "address"
        },
        {
          "indexed": true,
          "internalType": "uint256",
          "name": "tokenId",
          "type": "uint256"
        }
      ],
      "name": "Approval",
      "type": "event"
    },
    {
      "anonymous": false,
      "inputs": [
        {
          "indexed": true,
          "internalType": "address",
          "name": "owner",
          "type": "address"
        },
        {
          "indexed": true,
          "internalType": "address",
          "name": "operator",
          "type": "address"
        },
        {
          "indexed": false,
          "internalType": "bool",
          "name": "approved",
          "type": "bool"
        }
      ],
      "name": "ApprovalForAll",
      "type": "event"
    },
    {
      "anonymous": false,
      "inputs": [
        {
          "indexed": true,
          "internalType": "address",
          "name": "from",
          "type": "address"
        },
        {
          "indexed": true,
          "internalType": "address",
          "name": "to",
          "type": "address"
        },
        {
          "indexed": true,
          "internalType": "uint256",
          "name": "tokenId",
          "type": "uint256"
        }
      ],
      "name": "Transfer",
      "type": "event"
    },
    {
      "inputs": [
        {
          "internalType": "address",
          "name": "to",
          "type": "address"
        },
        {
          "internalType": "uint256",
          "name": "tokenId",
          "type": "uint256"
        }
      ],
      "name": "approve",
      "outputs": [],
      "stateMutability": "nonpayable",
      "type": "function"
    },
    {
      "inputs": [
        {
          "internalType": "address",
          "name": "owner",
          "type": "address"
        }
      ],
      "name": "balanceOf",
      "outputs": [
        {
          "internalType": "uint256",
          "name": "",
          "type": "uint256"
        }
      ],
      "stateMutability": "view",
      "type": "function"
    },
    {
      "inputs": [
        {
          "internalType": "uint256",
          "name": "tokenId",
          "type": "uint256"
        }
      ],
      "name": "getApproved",
      "outputs": [
        {
          "internalType": "address",
          "name": "",
          "type": "address"
        }
      ],
      "stateMutability": "view",
      "type": "function"
    },
    {
      "inputs": [
        {
          "internalType": "address",
          "name": "owner",
          "type": "address"
        },
        {
          "internalType": "address",
          "name": "operator",
          "type": "address"
        }
      ],
      "name": "isApprovedForAll",
      "outputs": [
        {
          "internalType": "bool",
          "name": "",
          "type": "bool"
        }
      ],
      "stateMutability": "view",
      "type": "function"
    },
    {
      "inputs": [],
      "name": "mintedSoFar",
      "outputs": [
        {
          "internalType": "uint256",
          "name": "",
          "type": "uint256"
        }
      ],
      "stateMutability": "view",
      "type": "function"
    },
    {
      "inputs": [],
      "name": "name",
      "outputs": [
        {
          "internalType": "string",
          "name": "",
          "type": "string"
        }
      ],
      "stateMutability": "view",
      "type": "function"
    },
    {
      "inputs": [
        {
          "internalType": "uint256",
          "name": "tokenId",
          "type": "uint256"
        }
      ],
      "name": "ownerOf",
      "outputs": [
        {
          "internalType": "address",
          "name": "",
          "type": "address"
        }
      ],
      "stateMutability": "view",
      "type": "function"
    },
    {
      "inputs": [
        {
          "internalType": "address",
          "name": "from",
          "type": "address"
        },
        {
          "internalType": "address",
          "name": "to",
          "type": "address"
        },
        {
          "internalType": "uint256",
          "name": "tokenId",
          "type": "uint256"
        }
      ],
      "name": "safeTransferFrom",
      "outputs": [],
      "stateMutability": "nonpayable",
      "type": "function"
    },
    {
      "inputs": [
        {
          "internalType": "address",
          "name": "from",
          "type": "address"
        },
        {
          "internalType": "address",
          "name": "to",
          "type": "address"
        },
        {
          "internalType": "uint256",
          "name": "tokenId",
          "type": "uint256"
        },
        {
          "internalType": "bytes",
          "name": "_data",
          "type": "bytes"
        }
      ],
      "name": "safeTransferFrom",
      "outputs": [],
      "stateMutability": "nonpayable",
      "type": "function"
    },
    {
      "inputs": [
        {
          "internalType": "address",
          "name": "operator",
          "type": "address"
        },
        {
          "internalType": "bool",
          "name": "approved",
          "type": "bool"
        }
      ],
      "name": "setApprovalForAll",
      "outputs": [],
      "stateMutability": "nonpayable",
      "type": "function"
    },
    {
      "inputs": [
        {
          "internalType": "bytes4",
          "name": "interfaceId",
          "type": "bytes4"
        }
      ],
      "name": "supportsInterface",
      "outputs": [
        {
          "internalType": "bool",
          "name": "",
          "type": "bool"
        }
      ],
      "stateMutability": "view",
      "type": "function"
    },
    {
      "inputs": [],
      "name": "symbol",
      "outputs": [
        {
          "internalType": "string",
          "name": "",
          "type": "string"
        }
      ],
      "stateMutability": "view",
      "type": "function"
    },
    {
      "inputs": [
        {
          "internalType": "uint256",
          "name": "tokenId",
          "type": "uint256"
        }
      ],
      "name": "tokenURI",
      "outputs": [
        {
          "internalType": "string",
          "name": "",
          "type": "string"
        }
      ],
      "stateMutability": "view",
      "type": "function"
    },
    {
      "inputs": [],
      "name": "totalSupply",
      "outputs": [
        {
          "internalType": "uint256",
          "name": "",
          "type": "uint256"
        }
      ],
      "stateMutability": "view",
      "type": "function"
    },
    {
      "inputs": [
        {
          "internalType": "address",
          "name": "from",
          "type": "address"
        },
        {
          "internalType": "address",
          "name": "to",
          "type": "address"
        },
        {
          "internalType": "uint256",
          "name": "tokenId",
          "type": "uint256"
        }
      ],
      "name": "transferFrom",
      "outputs": [],
      "stateMutability": "nonpayable",
      "type": "function"
    }
  ],
  "bytecode": "0x60806040523480156200001157600080fd5b5060405162001026380380620010268339810160408190526200003491620001df565b8151620000499060029060208501906200006c565b5080516200005f9060039060208401906200006c565b5050600080555062000286565b8280546200007a9062000249565b90600052602060002090601f0160209004810192826200009e5760008555620000e9565b82601f10620000b957805160ff1916838001178555620000e9565b82800160010185558215620000e9579182015b82811115620000e9578251825591602001919060010190620000cc565b50620000f7929150620000fb565b5090565b5b80821115620000f75760008155600101620000fc565b634e487b7160e01b600052604160045260246000fd5b600082601f8301126200013a57600080fd5b81516001600160401b038082111562000157576200015762000112565b604051601f8301601f19908116603f0116810190828211818310171562000182576200018262000112565b816040528381526020925086838588010111156200019f57600080fd5b600091505b83821015620001c35785820183015181830184015290820190620001a4565b83821115620001d55760008385830101525b9695505050505050565b60008060408385031215620001f357600080fd5b82516001600160401b03808211156200020b57600080fd5b620002198683870162000128565b935060208501519150808211156200023057600080fd5b506200023f8582860162000128565b9150509250929050565b600181811c908216806200025e57607f821691505b602082108114156200028057634e487b7160e01b600052602260045260246000fd5b50919050565b610d9080620002966000396000f3fe608060405234801561001057600080fd5b50600436106100f55760003560e01c80636352211e11610097578063a22cb46511610066578063a22cb465146101e9578063b88d4fde146101fc578063c87b56dd1461020f578063e985e9c51461022257600080fd5b80636352211e146101b357806370a08231146101c657806393bd3da5146101d957806395d89b41146101e157600080fd5b8063095ea7b3116100d3578063095ea7b31461016257806318160ddd1461017757806323b872dd1461018d57806342842e0e146101a057600080fd5b806301ffc9a7146100fa57806306fdde0314610122578063081812fc14610137575b600080fd5b61010d6101083660046109f8565b61025e565b60405190151581526020015b60405180910390f35b61012a6102b0565b6040516101199190610a6d565b61014a610145366004610a80565b610342565b6040516001600160a01b039091168152602001610119565b610175610170366004610ab5565b610386565b005b600154600054035b604051908152602001610119565b61017561019b366004610adf565b610466565b6101756101ae366004610adf565b610476565b61014a6101c1366004610a80565b610491565b61017f6101d4366004610b1b565b61049c565b60005461017f565b61012a6104e2565b6101756101f7366004610b36565b6104f1565b61017561020a366004610b88565b610587565b61012a61021d366004610a80565b6105d1565b61010d610230366004610c64565b6001600160a01b03918216600090815260076020908152604080832093909416825291909152205460ff1690565b60006301ffc9a760e01b6001600160e01b03198316148061028f57506380ac58cd60e01b6001600160e01b03198316145b806102aa5750635b5e139f60e01b6001600160e01b03198316145b92915050565b6060600280546102bf90610c97565b80601f01602080910402602001604051908101604052809291908181526020018280546102eb90610c97565b80156103385780601f1061030d57610100808354040283529160200191610338565b820191906000526020600020905b81548152906001019060200180831161031b57829003601f168201915b5050505050905090565b600061034d82610663565b61036a576040516333d1c03960e21b815260040160405180910390fd5b506000908152600660205260409020546001600160a01b031690565b60006103918261068a565b9050806001600160a01b0316836001600160a01b031614156103c65760405163250fdee360e21b815260040160405180910390fd5b336001600160a01b038216146103fd576103e08133610230565b6103fd576040516367d9dca160e11b815260040160405180910390fd5b600082815260066020526040808220805473ffffffffffffffffffffffffffffffffffffffff19166001600160a01b0387811691821790925591518593918516917f8c5be1e5ebec7d5bd14f71427d1e84f3dd0314c0f7b2291e5b200ac8c7c3b92591a4505050565b6104718383836106eb565b505050565b61047183838360405180602001604052806000815250610587565b60006102aa8261068a565b6000816104bc576040516323d3ad8160e21b815260040160405180910390fd5b506001600160a01b031660009081526005602052604090205467ffffffffffffffff1690565b6060600380546102bf90610c97565b6001600160a01b03821633141561051b5760405163b06307db60e01b815260040160405180910390fd5b3360008181526007602090815260408083206001600160a01b03871680855290835292819020805460ff191686151590811790915590519081529192917f17307eab39ab6107e8899845ad3d59bd9653f200f220920489ca2b5937696c31910160405180910390a35050565b6105928484846106eb565b6001600160a01b0383163b156105cb576105ae848484846108a8565b6105cb576040516368d2bf6b60e11b815260040160405180910390fd5b50505050565b60606105dc82610663565b6105f957604051630a14c4b560e41b815260040160405180910390fd5b600061061060408051602081019091526000815290565b9050805160001415610631576040518060200160405280600081525061065c565b8061063b84610990565b60405160200161064c929190610cd2565b6040516020818303038152906040525b9392505050565b60008054821080156102aa575050600090815260046020526040902054600160e01b161590565b6000816000548110156106d257600081815260046020526040902054600160e01b81166106d0575b8061065c5750600019016000818152600460205260409020546106b2565b505b604051636f96cda160e11b815260040160405180910390fd5b60006106f68261068a565b9050836001600160a01b0316816001600160a01b0316146107295760405162a1148160e81b815260040160405180910390fd5b6000828152600660205260408120546001600160a01b039081169190861633148061075957506107598633610230565b8061076c57506001600160a01b03821633145b90508061078c57604051632ce44b5f60e11b815260040160405180910390fd5b846107aa57604051633a954ecd60e21b815260040160405180910390fd5b81156107da576000848152600660205260409020805473ffffffffffffffffffffffffffffffffffffffff191690555b6001600160a01b03868116600090815260056020908152604080832080546000190190559288168252828220805460010190558682526004905220600160e11b4260a01b87178117909155831661085f576001840160008181526004602052604090205461085d57600054811461085d5760008181526004602052604090208490555b505b83856001600160a01b0316876001600160a01b03167fddf252ad1be2c89b69c2b068fc378daa952ba7f163c4a11628f55a4df523b3ef60405160405180910390a4505050505050565b604051630a85bd0160e11b81526000906001600160a01b0385169063150b7a02906108dd903390899088908890600401610d01565b6020604051808303816000875af1925050508015610918575060408051601f3d908101601f1916820190925261091591810190610d3d565b60015b610973573d808015610946576040519150601f19603f3d011682016040523d82523d6000602084013e61094b565b606091505b50805161096b576040516368d2bf6b60e11b815260040160405180910390fd5b805181602001fd5b6001600160e01b031916630a85bd0160e11b149050949350505050565b604080516080810191829052607f0190826030600a8206018353600a90045b80156109cd57600183039250600a81066030018353600a90046109af565b50819003601f19909101908152919050565b6001600160e01b0319811681146109f557600080fd5b50565b600060208284031215610a0a57600080fd5b813561065c816109df565b60005b83811015610a30578181015183820152602001610a18565b838111156105cb5750506000910152565b60008151808452610a59816020860160208601610a15565b601f01601f19169290920160200192915050565b60208152600061065c6020830184610a41565b600060208284031215610a9257600080fd5b5035919050565b80356001600160a01b0381168114610ab057600080fd5b919050565b60008060408385031215610ac857600080fd5b610ad183610a99565b946020939093013593505050565b600080600060608486031215610af457600080fd5b610afd84610a99565b9250610b0b60208501610a99565b9150604084013590509250925092565b600060208284031215610b2d57600080fd5b61065c82610a99565b60008060408385031215610b4957600080fd5b610b5283610a99565b915060208301358015158114610b6757600080fd5b809150509250929050565b634e487b7160e01b600052604160045260246000fd5b60008060008060808587031215610b9e57600080fd5b610ba785610a99565b9350610bb560208601610a99565b925060408501359150606085013567ffffffffffffffff80821115610bd957600080fd5b818701915087601f830112610bed57600080fd5b813581811115610bff57610bff610b72565b604051601f8201601f19908116603f01168101908382118183101715610c2757610c27610b72565b816040528281528a6020848701011115610c4057600080fd5b82602086016020830137600060208483010152809550505050505092959194509250565b60008060408385031215610c7757600080fd5b610c8083610a99565b9150610c8e60208401610a99565b90509250929050565b600181811c90821680610cab57607f821691505b60208210811415610ccc57634e487b7160e01b600052602260045260246000fd5b50919050565b60008351610ce4818460208801610a15565b835190830190610cf8818360208801610a15565b01949350505050565b60006001600160a01b03808716835280861660208401525083604083015260806060830152610d336080830184610a41565b9695505050505050565b600060208284031215610d4f57600080fd5b815161065c816109df56fea2646970667358221220072acb199079f33816977d93a6165464227bba9185ae57cc2e33416e28637f2164736f6c634300080b0033",
  "linkReferences": {},
  "deployedLinkReferences": {}
}