{
  "_format": "hh-sol-artifact-1",
  "contractName": "ERC721AQueryableMock",
  "sourceName": "contracts/mocks/ERC721AQueryableMock.sol",
  "abi": [
    {
      "inputs": [
        {
          "internalType": "string",
          "name": "name_",
          "type": "string"
        },
        {
          "internalType": "string",
          "name": "symbol_",
          "type": "string"
        }
      ],
      "stateMutability": "nonpayable",
      "type": "constructor"
    },
    {
      "inputs": [],
      "name": "ApprovalCallerNotOwnerNorApproved",
      "type": "error"
    },
    {
      "inputs": [],
      "name": "ApprovalQueryForNonexistentToken",
      "type": "error"
    },
    {
      "inputs": [],
      "name": "ApprovalToCurrentOwner",
      "type": "error"
    },
    {
      "inputs": [],
      "name": "ApproveToCaller",
      "type": "error"
    },
    {
      "inputs": [],
      "name": "BalanceQueryForZeroAddress",
      "type": "error"
    },
    {
      "inputs": [],
      "name": "InvalidQueryRange",
      "type": "error"
    },
    {
      "inputs": [],
      "name": "MintToZeroAddress",
      "type": "error"
    },
    {
      "inputs": [],
      "name": "MintZeroQuantity",
      "type": "error"
    },
    {
      "inputs": [],
      "name": "OwnerQueryForNonexistentToken",
      "type": "error"
    },
    {
      "inputs": [],
      "name": "TransferCallerNotOwnerNorApproved",
      "type": "error"
    },
    {
      "inputs": [],
      "name": "TransferFromIncorrectOwner",
      "type": "error"
    },
    {
      "inputs": [],
      "name": "TransferToNonERC721ReceiverImplementer",
      "type": "error"
    },
    {
      "inputs": [],
      "name": "TransferToZeroAddress",
      "type": "error"
    },
    {
      "inputs": [],
      "name": "URIQueryForNonexistentToken",
      "type": "error"
    },
    {
      "anonymous": false,
      "inputs": [
        {
          "indexed": true,
          "internalType": "address",
          "name": "owner",
          "type": "address"
        },
        {
          "indexed": true,
          "internalType": "address",
          "name": "approved",
          "type": "address"
        },
        {
          "indexed": true,
          "internalType": "uint256",
          "name": "tokenId",
          "type": "uint256"
        }
      ],
      "name": "Approval",
      "type": "event"
    },
    {
      "anonymous": false,
      "inputs": [
        {
          "indexed": true,
          "internalType": "address",
          "name": "owner",
          "type": "address"
        },
        {
          "indexed": true,
          "internalType": "address",
          "name": "operator",
          "type": "address"
        },
        {
          "indexed": false,
          "internalType": "bool",
          "name": "approved",
          "type": "bool"
        }
      ],
      "name": "ApprovalForAll",
      "type": "event"
    },
    {
      "anonymous": false,
      "inputs": [
        {
          "indexed": true,
          "internalType": "address",
          "name": "from",
          "type": "address"
        },
        {
          "indexed": true,
          "internalType": "address",
          "name": "to",
          "type": "address"
        },
        {
          "indexed": true,
          "internalType": "uint256",
          "name": "tokenId",
          "type": "uint256"
        }
      ],
      "name": "Transfer",
      "type": "event"
    },
    {
      "inputs": [
        {
          "internalType": "address",
          "name": "to",
          "type": "address"
        },
        {
          "internalType": "uint256",
          "name": "tokenId",
          "type": "uint256"
        }
      ],
      "name": "approve",
      "outputs": [],
      "stateMutability": "nonpayable",
      "type": "function"
    },
    {
      "inputs": [
        {
          "internalType": "address",
          "name": "owner",
          "type": "address"
        }
      ],
      "name": "balanceOf",
      "outputs": [
        {
          "internalType": "uint256",
          "name": "",
          "type": "uint256"
        }
      ],
      "stateMutability": "view",
      "type": "function"
    },
    {
      "inputs": [
        {
          "internalType": "uint256",
          "name": "tokenId",
          "type": "uint256"
        }
      ],
      "name": "burn",
      "outputs": [],
      "stateMutability": "nonpayable",
      "type": "function"
    },
    {
      "inputs": [
        {
          "internalType": "uint256",
          "name": "tokenId",
          "type": "uint256"
        }
      ],
      "name": "explicitOwnershipOf",
      "outputs": [
        {
          "components": [
            {
              "internalType": "address",
              "name": "addr",
              "type": "address"
            },
            {
              "internalType": "uint64",
              "name": "startTimestamp",
              "type": "uint64"
            },
            {
              "internalType": "bool",
              "name": "burned",
              "type": "bool"
            }
          ],
          "internalType": "struct IERC721A.TokenOwnership",
          "name": "",
          "type": "tuple"
        }
      ],
      "stateMutability": "view",
      "type": "function"
    },
    {
      "inputs": [
        {
          "internalType": "uint256[]",
          "name": "tokenIds",
          "type": "uint256[]"
        }
      ],
      "name": "explicitOwnershipsOf",
      "outputs": [
        {
          "components": [
            {
              "internalType": "address",
              "name": "addr",
              "type": "address"
            },
            {
              "internalType": "uint64",
              "name": "startTimestamp",
              "type": "uint64"
            },
            {
              "internalType": "bool",
              "name": "burned",
              "type": "bool"
            }
          ],
          "internalType": "struct IERC721A.TokenOwnership[]",
          "name": "",
          "type": "tuple[]"
        }
      ],
      "stateMutability": "view",
      "type": "function"
    },
    {
      "inputs": [
        {
          "internalType": "uint256",
          "name": "tokenId",
          "type": "uint256"
        }
      ],
      "name": "getApproved",
      "outputs": [
        {
          "internalType": "address",
          "name": "",
          "type": "address"
        }
      ],
      "stateMutability": "view",
      "type": "function"
    },
    {
      "inputs": [
        {
          "internalType": "address",
          "name": "owner",
          "type": "address"
        },
        {
          "internalType": "address",
          "name": "operator",
          "type": "address"
        }
      ],
      "name": "isApprovedForAll",
      "outputs": [
        {
          "internalType": "bool",
          "name": "",
          "type": "bool"
        }
      ],
      "stateMutability": "view",
      "type": "function"
    },
    {
      "inputs": [],
      "name": "mintedSoFar",
      "outputs": [
        {
          "internalType": "uint256",
          "name": "",
          "type": "uint256"
        }
      ],
      "stateMutability": "view",
      "type": "function"
    },
    {
      "inputs": [],
      "name": "name",
      "outputs": [
        {
          "internalType": "string",
          "name": "",
          "type": "string"
        }
      ],
      "stateMutability": "view",
      "type": "function"
    },
    {
      "inputs": [
        {
          "internalType": "uint256",
          "name": "tokenId",
          "type": "uint256"
        }
      ],
      "name": "ownerOf",
      "outputs": [
        {
          "internalType": "address",
          "name": "",
          "type": "address"
        }
      ],
      "stateMutability": "view",
      "type": "function"
    },
    {
      "inputs": [
        {
          "internalType": "address",
          "name": "to",
          "type": "address"
        },
        {
          "internalType": "uint256",
          "name": "quantity",
          "type": "uint256"
        }
      ],
      "name": "safeMint",
      "outputs": [],
      "stateMutability": "nonpayable",
      "type": "function"
    },
    {
      "inputs": [
        {
          "internalType": "address",
          "name": "from",
          "type": "address"
        },
        {
          "internalType": "address",
          "name": "to",
          "type": "address"
        },
        {
          "internalType": "uint256",
          "name": "tokenId",
          "type": "uint256"
        }
      ],
      "name": "safeTransferFrom",
      "outputs": [],
      "stateMutability": "nonpayable",
      "type": "function"
    },
    {
      "inputs": [
        {
          "internalType": "address",
          "name": "from",
          "type": "address"
        },
        {
          "internalType": "address",
          "name": "to",
          "type": "address"
        },
        {
          "internalType": "uint256",
          "name": "tokenId",
          "type": "uint256"
        },
        {
          "internalType": "bytes",
          "name": "_data",
          "type": "bytes"
        }
      ],
      "name": "safeTransferFrom",
      "outputs": [],
      "stateMutability": "nonpayable",
      "type": "function"
    },
    {
      "inputs": [
        {
          "internalType": "address",
          "name": "operator",
          "type": "address"
        },
        {
          "internalType": "bool",
          "name": "approved",
          "type": "bool"
        }
      ],
      "name": "setApprovalForAll",
      "outputs": [],
      "stateMutability": "nonpayable",
      "type": "function"
    },
    {
      "inputs": [
        {
          "internalType": "bytes4",
          "name": "interfaceId",
          "type": "bytes4"
        }
      ],
      "name": "supportsInterface",
      "outputs": [
        {
          "internalType": "bool",
          "name": "",
          "type": "bool"
        }
      ],
      "stateMutability": "view",
      "type": "function"
    },
    {
      "inputs": [],
      "name": "symbol",
      "outputs": [
        {
          "internalType": "string",
          "name": "",
          "type": "string"
        }
      ],
      "stateMutability": "view",
      "type": "function"
    },
    {
      "inputs": [
        {
          "internalType": "uint256",
          "name": "tokenId",
          "type": "uint256"
        }
      ],
      "name": "tokenURI",
      "outputs": [
        {
          "internalType": "string",
          "name": "",
          "type": "string"
        }
      ],
      "stateMutability": "view",
      "type": "function"
    },
    {
      "inputs": [
        {
          "internalType": "address",
          "name": "owner",
          "type": "address"
        }
      ],
      "name": "tokensOfOwner",
      "outputs": [
        {
          "internalType": "uint256[]",
          "name": "",
          "type": "uint256[]"
        }
      ],
      "stateMutability": "view",
      "type": "function"
    },
    {
      "inputs": [
        {
          "internalType": "address",
          "name": "owner",
          "type": "address"
        },
        {
          "internalType": "uint256",
          "name": "start",
          "type": "uint256"
        },
        {
          "internalType": "uint256",
          "name": "stop",
          "type": "uint256"
        }
      ],
      "name": "tokensOfOwnerIn",
      "outputs": [
        {
          "internalType": "uint256[]",
          "name": "",
          "type": "uint256[]"
        }
      ],
      "stateMutability": "view",
      "type": "function"
    },
    {
      "inputs": [],
      "name": "totalSupply",
      "outputs": [
        {
          "internalType": "uint256",
          "name": "",
          "type": "uint256"
        }
      ],
      "stateMutability": "view",
      "type": "function"
    },
    {
      "inputs": [
        {
          "internalType": "address",
          "name": "from",
          "type": "address"
        },
        {
          "internalType": "address",
          "name": "to",
          "type": "address"
        },
        {
          "internalType": "uint256",
          "name": "tokenId",
          "type": "uint256"
        }
      ],
      "name": "transferFrom",
      "outputs": [],
      "stateMutability": "nonpayable",
      "type": "function"
    }
  ],
  "bytecode": "0x60806040523480156200001157600080fd5b5060405162001b1638038062001b168339810160408190526200003491620001e6565b8151829082906200004d90600290602085019062000073565b5080516200006390600390602084019062000073565b5060008055506200028d92505050565b828054620000819062000250565b90600052602060002090601f016020900481019282620000a55760008555620000f0565b82601f10620000c057805160ff1916838001178555620000f0565b82800160010185558215620000f0579182015b82811115620000f0578251825591602001919060010190620000d3565b50620000fe92915062000102565b5090565b5b80821115620000fe576000815560010162000103565b634e487b7160e01b600052604160045260246000fd5b600082601f8301126200014157600080fd5b81516001600160401b03808211156200015e576200015e62000119565b604051601f8301601f19908116603f0116810190828211818310171562000189576200018962000119565b81604052838152602092508683858801011115620001a657600080fd5b600091505b83821015620001ca5785820183015181830184015290820190620001ab565b83821115620001dc5760008385830101525b9695505050505050565b60008060408385031215620001fa57600080fd5b82516001600160401b03808211156200021257600080fd5b62000220868387016200012f565b935060208501519150808211156200023757600080fd5b5062000246858286016200012f565b9150509250929050565b600181811c908216806200026557607f821691505b602082108114156200028757634e487b7160e01b600052602260045260246000fd5b50919050565b611879806200029d6000396000f3fe608060405234801561001057600080fd5b50600436106101775760003560e01c806370a08231116100d8578063a14481941161008c578063c23dc68f11610066578063c23dc68f1461030a578063c87b56dd1461032a578063e985e9c51461033d57600080fd5b8063a1448194146102d1578063a22cb465146102e4578063b88d4fde146102f757600080fd5b806393bd3da5116100bd57806393bd3da5146102ae57806395d89b41146102b657806399a2557a146102be57600080fd5b806370a082311461027b5780638462151c1461028e57600080fd5b806323b872dd1161012f57806342966c681161011457806342966c68146102355780635bbb2177146102485780636352211e1461026857600080fd5b806323b872dd1461020f57806342842e0e1461022257600080fd5b8063081812fc11610160578063081812fc146101b9578063095ea7b3146101e457806318160ddd146101f957600080fd5b806301ffc9a71461017c57806306fdde03146101a4575b600080fd5b61018f61018a366004611304565b610379565b60405190151581526020015b60405180910390f35b6101ac6103cb565b60405161019b9190611379565b6101cc6101c736600461138c565b61045d565b6040516001600160a01b03909116815260200161019b565b6101f76101f23660046113c1565b6104a1565b005b600154600054035b60405190815260200161019b565b6101f761021d3660046113eb565b61059e565b6101f76102303660046113eb565b6105ae565b6101f761024336600461138c565b6105c9565b61025b61025636600461146e565b6105d7565b60405161019b9190611514565b6101cc61027636600461138c565b61069e565b61020161028936600461157f565b6106a9565b6102a161029c36600461157f565b6106ef565b60405161019b919061159a565b600054610201565b6101ac6107f0565b6102a16102cc3660046115d2565b6107ff565b6101f76102df3660046113c1565b61097d565b6101f76102f2366004611605565b61098b565b6101f7610305366004611641565b610a21565b61031d61031836600461138c565b610a6b565b60405161019b9190611701565b6101ac61033836600461138c565b610ad4565b61018f61034b366004611737565b6001600160a01b03918216600090815260076020908152604080832093909416825291909152205460ff1690565b60006301ffc9a760e01b6001600160e01b0319831614806103aa57506380ac58cd60e01b6001600160e01b03198316145b806103c55750635b5e139f60e01b6001600160e01b03198316145b92915050565b6060600280546103da9061176a565b80601f01602080910402602001604051908101604052809291908181526020018280546104069061176a565b80156104535780601f1061042857610100808354040283529160200191610453565b820191906000526020600020905b81548152906001019060200180831161043657829003601f168201915b5050505050905090565b600061046882610b65565b610485576040516333d1c03960e21b815260040160405180910390fd5b506000908152600660205260409020546001600160a01b031690565b60006104ac82610b8c565b9050806001600160a01b0316836001600160a01b031614156104e15760405163250fdee360e21b815260040160405180910390fd5b336001600160a01b03821614610535576001600160a01b038116600090815260076020908152604080832033845290915290205460ff16610535576040516367d9dca160e11b815260040160405180910390fd5b600082815260066020526040808220805473ffffffffffffffffffffffffffffffffffffffff19166001600160a01b0387811691821790925591518593918516917f8c5be1e5ebec7d5bd14f71427d1e84f3dd0314c0f7b2291e5b200ac8c7c3b92591a4505050565b6105a9838383610bed565b505050565b6105a983838360405180602001604052806000815250610a21565b6105d4816001610dc8565b50565b805160609060008167ffffffffffffffff8111156105f7576105f7611427565b60405190808252806020026020018201604052801561064257816020015b60408051606081018252600080825260208083018290529282015282526000199092019101816106155790505b50905060005b82811461069657610671858281518110610664576106646117a5565b6020026020010151610a6b565b828281518110610683576106836117a5565b6020908102919091010152600101610648565b509392505050565b60006103c582610b8c565b6000816106c9576040516323d3ad8160e21b815260040160405180910390fd5b506001600160a01b031660009081526005602052604090205467ffffffffffffffff1690565b606060008060006106ff856106a9565b905060008167ffffffffffffffff81111561071c5761071c611427565b604051908082528060200260200182016040528015610745578160200160208202803683370190505b50604080516060810182526000808252602082018190529181018290529192505b8386146107e45761077681610f66565b9150816040015115610787576107dc565b81516001600160a01b03161561079c57815194505b876001600160a01b0316856001600160a01b031614156107dc57808387806001019850815181106107cf576107cf6117a5565b6020026020010181815250505b600101610766565b50909695505050505050565b6060600380546103da9061176a565b606081831061082157604051631960ccad60e11b815260040160405180910390fd5b60008061082d60005490565b90508084111561083b578093505b6000610846876106a9565b905084861015610865578585038181101561085f578091505b50610869565b5060005b60008167ffffffffffffffff81111561088457610884611427565b6040519080825280602002602001820160405280156108ad578160200160208202803683370190505b509050816108c057935061097692505050565b60006108cb88610a6b565b9050600081604001516108dc575080515b885b8881141580156108ee5750848714155b1561096a576108fc81610f66565b925082604001511561090d57610962565b82516001600160a01b03161561092257825191505b8a6001600160a01b0316826001600160a01b031614156109625780848880600101995081518110610955576109556117a5565b6020026020010181815250505b6001016108de565b50505092835250909150505b9392505050565b6109878282610fd1565b5050565b6001600160a01b0382163314156109b55760405163b06307db60e01b815260040160405180910390fd5b3360008181526007602090815260408083206001600160a01b03871680855290835292819020805460ff191686151590811790915590519081529192917f17307eab39ab6107e8899845ad3d59bd9653f200f220920489ca2b5937696c31910160405180910390a35050565b610a2c848484610bed565b6001600160a01b0383163b15610a6557610a4884848484610feb565b610a65576040516368d2bf6b60e11b815260040160405180910390fd5b50505050565b6040805160608082018352600080835260208084018290528385018290528451928301855281835282018190529281018390529091506000548310610ab05792915050565b610ab983610f66565b9050806040015115610acb5792915050565b610976836110d3565b6060610adf82610b65565b610afc57604051630a14c4b560e41b815260040160405180910390fd5b6000610b1360408051602081019091526000815290565b9050805160001415610b345760405180602001604052806000815250610976565b80610b3e84611137565b604051602001610b4f9291906117bb565b6040516020818303038152906040529392505050565b60008054821080156103c5575050600090815260046020526040902054600160e01b161590565b600081600054811015610bd457600081815260046020526040902054600160e01b8116610bd2575b80610976575060001901600081815260046020526040902054610bb4565b505b604051636f96cda160e11b815260040160405180910390fd5b6000610bf882610b8c565b9050836001600160a01b0316816001600160a01b031614610c2b5760405162a1148160e81b815260040160405180910390fd5b6000828152600660205260408120546001600160a01b0390811691908616331480610c7957506001600160a01b038616600090815260076020908152604080832033845290915290205460ff165b80610c8c57506001600160a01b03821633145b905080610cac57604051632ce44b5f60e11b815260040160405180910390fd5b84610cca57604051633a954ecd60e21b815260040160405180910390fd5b8115610cfa576000848152600660205260409020805473ffffffffffffffffffffffffffffffffffffffff191690555b6001600160a01b03868116600090815260056020908152604080832080546000190190559288168252828220805460010190558682526004905220600160e11b4260a01b871781179091558316610d7f5760018401600081815260046020526040902054610d7d576000548114610d7d5760008181526004602052604090208490555b505b83856001600160a01b0316876001600160a01b03167fddf252ad1be2c89b69c2b068fc378daa952ba7f163c4a11628f55a4df523b3ef60405160405180910390a4505050505050565b6000610dd383610b8c565b60008481526006602052604090205490915081906001600160a01b03168315610e67576000336001600160a01b0384161480610e3257506001600160a01b038316600090815260076020908152604080832033845290915290205460ff165b80610e4557506001600160a01b03821633145b905080610e6557604051632ce44b5f60e11b815260040160405180910390fd5b505b8015610e97576000858152600660205260409020805473ffffffffffffffffffffffffffffffffffffffff191690555b6001600160a01b038216600090815260056020908152604080832080546fffffffffffffffffffffffffffffffff01905587835260049091529020600360e01b4260a01b8417179055600160e11b8316610f1f5760018501600081815260046020526040902054610f1d576000548114610f1d5760008181526004602052604090208490555b505b60405185906000906001600160a01b038516907fddf252ad1be2c89b69c2b068fc378daa952ba7f163c4a11628f55a4df523b3ef908390a450506001805481019055505050565b60408051606081018252600080825260208201819052918101919091526000828152600460205260409020546103c590604080516060810182526001600160a01b038316815260a083901c67ffffffffffffffff166020820152600160e01b90921615159082015290565b610987828260405180602001604052806000815250611186565b604051630a85bd0160e11b81526000906001600160a01b0385169063150b7a02906110209033908990889088906004016117ea565b6020604051808303816000875af192505050801561105b575060408051601f3d908101601f1916820190925261105891810190611826565b60015b6110b6573d808015611089576040519150601f19603f3d011682016040523d82523d6000602084013e61108e565b606091505b5080516110ae576040516368d2bf6b60e11b815260040160405180910390fd5b805181602001fd5b6001600160e01b031916630a85bd0160e11b149050949350505050565b60408051606081018252600080825260208201819052918101919091526103c56110fc83610b8c565b604080516060810182526001600160a01b038316815260a083901c67ffffffffffffffff166020820152600160e01b90921615159082015290565b604080516080810191829052607f0190826030600a8206018353600a90045b801561117457600183039250600a81066030018353600a9004611156565b50819003601f19909101908152919050565b600054836111a657604051622e076360e81b815260040160405180910390fd5b826111c45760405163b562e8dd60e01b815260040160405180910390fd5b6001600160a01b03841660008181526005602090815260408083208054680100000000000000018902019055848352600490915290204260a01b86176001861460e11b1790558190818501903b15611299575b60405182906001600160a01b038816906000907fddf252ad1be2c89b69c2b068fc378daa952ba7f163c4a11628f55a4df523b3ef908290a46112626000878480600101955087610feb565b61127f576040516368d2bf6b60e11b815260040160405180910390fd5b80821061121757826000541461129457600080fd5b6112de565b5b6040516001830192906001600160a01b038816906000907fddf252ad1be2c89b69c2b068fc378daa952ba7f163c4a11628f55a4df523b3ef908290a480821061129a575b506000908155610a659085838684565b6001600160e01b0319811681146105d457600080fd5b60006020828403121561131657600080fd5b8135610976816112ee565b60005b8381101561133c578181015183820152602001611324565b83811115610a655750506000910152565b60008151808452611365816020860160208601611321565b601f01601f19169290920160200192915050565b602081526000610976602083018461134d565b60006020828403121561139e57600080fd5b5035919050565b80356001600160a01b03811681146113bc57600080fd5b919050565b600080604083850312156113d457600080fd5b6113dd836113a5565b946020939093013593505050565b60008060006060848603121561140057600080fd5b611409846113a5565b9250611417602085016113a5565b9150604084013590509250925092565b634e487b7160e01b600052604160045260246000fd5b604051601f8201601f1916810167ffffffffffffffff8111828210171561146657611466611427565b604052919050565b6000602080838503121561148157600080fd5b823567ffffffffffffffff8082111561149957600080fd5b818501915085601f8301126114ad57600080fd5b8135818111156114bf576114bf611427565b8060051b91506114d084830161143d565b81815291830184019184810190888411156114ea57600080fd5b938501935b83851015611508578435825293850193908501906114ef565b98975050505050505050565b6020808252825182820181905260009190848201906040850190845b818110156107e45761156c83855180516001600160a01b0316825260208082015167ffffffffffffffff16908301526040908101511515910152565b9284019260609290920191600101611530565b60006020828403121561159157600080fd5b610976826113a5565b6020808252825182820181905260009190848201906040850190845b818110156107e4578351835292840192918401916001016115b6565b6000806000606084860312156115e757600080fd5b6115f0846113a5565b95602085013595506040909401359392505050565b6000806040838503121561161857600080fd5b611621836113a5565b91506020830135801515811461163657600080fd5b809150509250929050565b6000806000806080858703121561165757600080fd5b611660856113a5565b9350602061166f8187016113a5565b935060408601359250606086013567ffffffffffffffff8082111561169357600080fd5b818801915088601f8301126116a757600080fd5b8135818111156116b9576116b9611427565b6116cb601f8201601f1916850161143d565b915080825289848285010111156116e157600080fd5b808484018584013760008482840101525080935050505092959194509250565b81516001600160a01b0316815260208083015167ffffffffffffffff1690820152604080830151151590820152606081016103c5565b6000806040838503121561174a57600080fd5b611753836113a5565b9150611761602084016113a5565b90509250929050565b600181811c9082168061177e57607f821691505b6020821081141561179f57634e487b7160e01b600052602260045260246000fd5b50919050565b634e487b7160e01b600052603260045260246000fd5b600083516117cd818460208801611321565b8351908301906117e1818360208801611321565b01949350505050565b60006001600160a01b0380871683528086166020840152508360408301526080606083015261181c608083018461134d565b9695505050505050565b60006020828403121561183857600080fd5b8151610976816112ee56fea264697066735822122016f4c671abb1fa63701c628853ef62dde1160c832a53fcd11edf7d0aa15f4d9364736f6c634300080b0033",
  "linkReferences": {},
  "deployedLinkReferences": {}
}