{
  "_format": "hh-sol-artifact-1",
  "contractName": "ERC721ABurnableMock",
  "sourceName": "contracts/mocks/ERC721ABurnableMock.sol",
  "abi": [
    {
      "inputs": [
        {
          "internalType": "string",
          "name": "name_",
          "type": "string"
        },
        {
          "internalType": "string",
          "name": "symbol_",
          "type": "string"
        }
      ],
      "stateMutability": "nonpayable",
      "type": "constructor"
    },
    {
      "inputs": [],
      "name": "ApprovalCallerNotOwnerNorApproved",
      "type": "error"
    },
    {
      "inputs": [],
      "name": "ApprovalQueryForNonexistentToken",
      "type": "error"
    },
    {
      "inputs": [],
      "name": "ApprovalToCurrentOwner",
      "type": "error"
    },
    {
      "inputs": [],
      "name": "ApproveToCaller",
      "type": "error"
    },
    {
      "inputs": [],
      "name": "BalanceQueryForZeroAddress",
      "type": "error"
    },
    {
      "inputs": [],
      "name": "MintToZeroAddress",
      "type": "error"
    },
    {
      "inputs": [],
      "name": "MintZeroQuantity",
      "type": "error"
    },
    {
      "inputs": [],
      "name": "OwnerQueryForNonexistentToken",
      "type": "error"
    },
    {
      "inputs": [],
      "name": "TransferCallerNotOwnerNorApproved",
      "type": "error"
    },
    {
      "inputs": [],
      "name": "TransferFromIncorrectOwner",
      "type": "error"
    },
    {
      "inputs": [],
      "name": "TransferToNonERC721ReceiverImplementer",
      "type": "error"
    },
    {
      "inputs": [],
      "name": "TransferToZeroAddress",
      "type": "error"
    },
    {
      "inputs": [],
      "name": "URIQueryForNonexistentToken",
      "type": "error"
    },
    {
      "anonymous": false,
      "inputs": [
        {
          "indexed": true,
          "internalType": "address",
          "name": "owner",
          "type": "address"
        },
        {
          "indexed": true,
          "internalType": "address",
          "name": "approved",
          "type": "address"
        },
        {
          "indexed": true,
          "internalType": "uint256",
          "name": "tokenId",
          "type": "uint256"
        }
      ],
      "name": "Approval",
      "type": "event"
    },
    {
      "anonymous": false,
      "inputs": [
        {
          "indexed": true,
          "internalType": "address",
          "name": "owner",
          "type": "address"
        },
        {
          "indexed": true,
          "internalType": "address",
          "name": "operator",
          "type": "address"
        },
        {
          "indexed": false,
          "internalType": "bool",
          "name": "approved",
          "type": "bool"
        }
      ],
      "name": "ApprovalForAll",
      "type": "event"
    },
    {
      "anonymous": false,
      "inputs": [
        {
          "indexed": true,
          "internalType": "address",
          "name": "from",
          "type": "address"
        },
        {
          "indexed": true,
          "internalType": "address",
          "name": "to",
          "type": "address"
        },
        {
          "indexed": true,
          "internalType": "uint256",
          "name": "tokenId",
          "type": "uint256"
        }
      ],
      "name": "Transfer",
      "type": "event"
    },
    {
      "inputs": [
        {
          "internalType": "address",
          "name": "to",
          "type": "address"
        },
        {
          "internalType": "uint256",
          "name": "tokenId",
          "type": "uint256"
        }
      ],
      "name": "approve",
      "outputs": [],
      "stateMutability": "nonpayable",
      "type": "function"
    },
    {
      "inputs": [
        {
          "internalType": "address",
          "name": "owner",
          "type": "address"
        }
      ],
      "name": "balanceOf",
      "outputs": [
        {
          "internalType": "uint256",
          "name": "",
          "type": "uint256"
        }
      ],
      "stateMutability": "view",
      "type": "function"
    },
    {
      "inputs": [
        {
          "internalType": "uint256",
          "name": "tokenId",
          "type": "uint256"
        }
      ],
      "name": "burn",
      "outputs": [],
      "stateMutability": "nonpayable",
      "type": "function"
    },
    {
      "inputs": [
        {
          "internalType": "uint256",
          "name": "tokenId",
          "type": "uint256"
        }
      ],
      "name": "exists",
      "outputs": [
        {
          "internalType": "bool",
          "name": "",
          "type": "bool"
        }
      ],
      "stateMutability": "view",
      "type": "function"
    },
    {
      "inputs": [
        {
          "internalType": "uint256",
          "name": "tokenId",
          "type": "uint256"
        }
      ],
      "name": "getApproved",
      "outputs": [
        {
          "internalType": "address",
          "name": "",
          "type": "address"
        }
      ],
      "stateMutability": "view",
      "type": "function"
    },
    {
      "inputs": [
        {
          "internalType": "uint256",
          "name": "index",
          "type": "uint256"
        }
      ],
      "name": "getOwnershipAt",
      "outputs": [
        {
          "components": [
            {
              "internalType": "address",
              "name": "addr",
              "type": "address"
            },
            {
              "internalType": "uint64",
              "name": "startTimestamp",
              "type": "uint64"
            },
            {
              "internalType": "bool",
              "name": "burned",
              "type": "bool"
            }
          ],
          "internalType": "struct IERC721A.TokenOwnership",
          "name": "",
          "type": "tuple"
        }
      ],
      "stateMutability": "view",
      "type": "function"
    },
    {
      "inputs": [
        {
          "internalType": "address",
          "name": "owner",
          "type": "address"
        },
        {
          "internalType": "address",
          "name": "operator",
          "type": "address"
        }
      ],
      "name": "isApprovedForAll",
      "outputs": [
        {
          "internalType": "bool",
          "name": "",
          "type": "bool"
        }
      ],
      "stateMutability": "view",
      "type": "function"
    },
    {
      "inputs": [],
      "name": "mintedSoFar",
      "outputs": [
        {
          "internalType": "uint256",
          "name": "",
          "type": "uint256"
        }
      ],
      "stateMutability": "view",
      "type": "function"
    },
    {
      "inputs": [],
      "name": "name",
      "outputs": [
        {
          "internalType": "string",
          "name": "",
          "type": "string"
        }
      ],
      "stateMutability": "view",
      "type": "function"
    },
    {
      "inputs": [
        {
          "internalType": "address",
          "name": "owner",
          "type": "address"
        }
      ],
      "name": "numberBurned",
      "outputs": [
        {
          "internalType": "uint256",
          "name": "",
          "type": "uint256"
        }
      ],
      "stateMutability": "view",
      "type": "function"
    },
    {
      "inputs": [
        {
          "internalType": "uint256",
          "name": "tokenId",
          "type": "uint256"
        }
      ],
      "name": "ownerOf",
      "outputs": [
        {
          "internalType": "address",
          "name": "",
          "type": "address"
        }
      ],
      "stateMutability": "view",
      "type": "function"
    },
    {
      "inputs": [
        {
          "internalType": "address",
          "name": "to",
          "type": "address"
        },
        {
          "internalType": "uint256",
          "name": "quantity",
          "type": "uint256"
        }
      ],
      "name": "safeMint",
      "outputs": [],
      "stateMutability": "nonpayable",
      "type": "function"
    },
    {
      "inputs": [
        {
          "internalType": "address",
          "name": "from",
          "type": "address"
        },
        {
          "internalType": "address",
          "name": "to",
          "type": "address"
        },
        {
          "internalType": "uint256",
          "name": "tokenId",
          "type": "uint256"
        }
      ],
      "name": "safeTransferFrom",
      "outputs": [],
      "stateMutability": "nonpayable",
      "type": "function"
    },
    {
      "inputs": [
        {
          "internalType": "address",
          "name": "from",
          "type": "address"
        },
        {
          "internalType": "address",
          "name": "to",
          "type": "address"
        },
        {
          "internalType": "uint256",
          "name": "tokenId",
          "type": "uint256"
        },
        {
          "internalType": "bytes",
          "name": "_data",
          "type": "bytes"
        }
      ],
      "name": "safeTransferFrom",
      "outputs": [],
      "stateMutability": "nonpayable",
      "type": "function"
    },
    {
      "inputs": [
        {
          "internalType": "address",
          "name": "operator",
          "type": "address"
        },
        {
          "internalType": "bool",
          "name": "approved",
          "type": "bool"
        }
      ],
      "name": "setApprovalForAll",
      "outputs": [],
      "stateMutability": "nonpayable",
      "type": "function"
    },
    {
      "inputs": [
        {
          "internalType": "bytes4",
          "name": "interfaceId",
          "type": "bytes4"
        }
      ],
      "name": "supportsInterface",
      "outputs": [
        {
          "internalType": "bool",
          "name": "",
          "type": "bool"
        }
      ],
      "stateMutability": "view",
      "type": "function"
    },
    {
      "inputs": [],
      "name": "symbol",
      "outputs": [
        {
          "internalType": "string",
          "name": "",
          "type": "string"
        }
      ],
      "stateMutability": "view",
      "type": "function"
    },
    {
      "inputs": [
        {
          "internalType": "uint256",
          "name": "tokenId",
          "type": "uint256"
        }
      ],
      "name": "tokenURI",
      "outputs": [
        {
          "internalType": "string",
          "name": "",
          "type": "string"
        }
      ],
      "stateMutability": "view",
      "type": "function"
    },
    {
      "inputs": [],
      "name": "totalBurned",
      "outputs": [
        {
          "internalType": "uint256",
          "name": "",
          "type": "uint256"
        }
      ],
      "stateMutability": "view",
      "type": "function"
    },
    {
      "inputs": [],
      "name": "totalMinted",
      "outputs": [
        {
          "internalType": "uint256",
          "name": "",
          "type": "uint256"
        }
      ],
      "stateMutability": "view",
      "type": "function"
    },
    {
      "inputs": [],
      "name": "totalSupply",
      "outputs": [
        {
          "internalType": "uint256",
          "name": "",
          "type": "uint256"
        }
      ],
      "stateMutability": "view",
      "type": "function"
    },
    {
      "inputs": [
        {
          "internalType": "address",
          "name": "from",
          "type": "address"
        },
        {
          "internalType": "address",
          "name": "to",
          "type": "address"
        },
        {
          "internalType": "uint256",
          "name": "tokenId",
          "type": "uint256"
        }
      ],
      "name": "transferFrom",
      "outputs": [],
      "stateMutability": "nonpayable",
      "type": "function"
    }
  ],
  "bytecode": "0x60806040523480156200001157600080fd5b506040516200154d3803806200154d8339810160408190526200003491620001e6565b8151829082906200004d90600290602085019062000073565b5080516200006390600390602084019062000073565b5060008055506200028d92505050565b828054620000819062000250565b90600052602060002090601f016020900481019282620000a55760008555620000f0565b82601f10620000c057805160ff1916838001178555620000f0565b82800160010185558215620000f0579182015b82811115620000f0578251825591602001919060010190620000d3565b50620000fe92915062000102565b5090565b5b80821115620000fe576000815560010162000103565b634e487b7160e01b600052604160045260246000fd5b600082601f8301126200014157600080fd5b81516001600160401b03808211156200015e576200015e62000119565b604051601f8301601f19908116603f0116810190828211818310171562000189576200018962000119565b81604052838152602092508683858801011115620001a657600080fd5b600091505b83821015620001ca5785820183015181830184015290820190620001ab565b83821115620001dc5760008385830101525b9695505050505050565b60008060408385031215620001fa57600080fd5b82516001600160401b03808211156200021257600080fd5b62000220868387016200012f565b935060208501519150808211156200023757600080fd5b5062000246858286016200012f565b9150509250929050565b600181811c908216806200026557607f821691505b602082108114156200028757634e487b7160e01b600052602260045260246000fd5b50919050565b6112b0806200029d6000396000f3fe608060405234801561001057600080fd5b50600436106101825760003560e01c806370a08231116100d8578063a2309ff81161008c578063d89135cd11610066578063d89135cd146102fb578063e985e9c514610303578063f25236331461033f57600080fd5b8063a2309ff81461029f578063b88d4fde146102d5578063c87b56dd146102e857600080fd5b806395d89b41116100bd57806395d89b41146102a7578063a1448194146102af578063a22cb465146102c257600080fd5b806370a082311461028c57806393bd3da51461029f57600080fd5b806323b872dd1161013a57806342966c681161011457806342966c68146102535780634f558e79146102665780636352211e1461027957600080fd5b806323b872dd1461021a5780632478d6391461022d57806342842e0e1461024057600080fd5b8063081812fc1161016b578063081812fc146101c4578063095ea7b3146101ef57806318160ddd1461020457600080fd5b806301ffc9a71461018757806306fdde03146101af575b600080fd5b61019a610195366004610f18565b610389565b60405190151581526020015b60405180910390f35b6101b76103db565b6040516101a69190610f8d565b6101d76101d2366004610fa0565b61046d565b6040516001600160a01b0390911681526020016101a6565b6102026101fd366004610fd5565b6104b1565b005b600154600054035b6040519081526020016101a6565b610202610228366004610fff565b610591565b61020c61023b36600461103b565b6105a1565b61020261024e366004610fff565b6105cf565b610202610261366004610fa0565b6105ea565b61019a610274366004610fa0565b6105f8565b6101d7610287366004610fa0565b610603565b61020c61029a36600461103b565b61060e565b60005461020c565b6101b7610654565b6102026102bd366004610fd5565b610663565b6102026102d0366004611056565b610671565b6102026102e33660046110a8565b61070c565b6101b76102f6366004610fa0565b610756565b61020c6107e8565b61019a610311366004611184565b6001600160a01b03918216600090815260076020908152604080832093909416825291909152205460ff1690565b61035261034d366004610fa0565b6107f3565b6040805182516001600160a01b0316815260208084015167ffffffffffffffff1690820152918101511515908201526060016101a6565b60006301ffc9a760e01b6001600160e01b0319831614806103ba57506380ac58cd60e01b6001600160e01b03198316145b806103d55750635b5e139f60e01b6001600160e01b03198316145b92915050565b6060600280546103ea906111b7565b80601f0160208091040260200160405190810160405280929190818152602001828054610416906111b7565b80156104635780601f1061043857610100808354040283529160200191610463565b820191906000526020600020905b81548152906001019060200180831161044657829003601f168201915b5050505050905090565b600061047882610819565b610495576040516333d1c03960e21b815260040160405180910390fd5b506000908152600660205260409020546001600160a01b031690565b60006104bc82610840565b9050806001600160a01b0316836001600160a01b031614156104f15760405163250fdee360e21b815260040160405180910390fd5b336001600160a01b038216146105285761050b8133610311565b610528576040516367d9dca160e11b815260040160405180910390fd5b600082815260066020526040808220805473ffffffffffffffffffffffffffffffffffffffff19166001600160a01b0387811691821790925591518593918516917f8c5be1e5ebec7d5bd14f71427d1e84f3dd0314c0f7b2291e5b200ac8c7c3b92591a4505050565b61059c8383836108a1565b505050565b60006103d5826001600160a01b031660009081526005602052604090205460801c67ffffffffffffffff1690565b61059c8383836040518060200160405280600081525061070c565b6105f5816001610a5e565b50565b60006103d582610819565b60006103d582610840565b60008161062e576040516323d3ad8160e21b815260040160405180910390fd5b506001600160a01b031660009081526005602052604090205467ffffffffffffffff1690565b6060600380546103ea906111b7565b61066d8282610bde565b5050565b6001600160a01b03821633141561069b5760405163b06307db60e01b815260040160405180910390fd5b3360008181526007602090815260408083206001600160a01b03871680855290835292819020805460ff191686151590811790915590519081529192917f17307eab39ab6107e8899845ad3d59bd9653f200f220920489ca2b5937696c31910160405180910390a35050565b905090565b6107178484846108a1565b6001600160a01b0383163b156107505761073384848484610bf8565b610750576040516368d2bf6b60e11b815260040160405180910390fd5b50505050565b606061076182610819565b61077e57604051630a14c4b560e41b815260040160405180910390fd5b600061079560408051602081019091526000815290565b90508051600014156107b657604051806020016040528060008152506107e1565b806107c084610ce0565b6040516020016107d19291906111f2565b6040516020818303038152906040525b9392505050565b600061070760015490565b60408051606081018252600080825260208201819052918101919091526103d582610d2f565b60008054821080156103d5575050600090815260046020526040902054600160e01b161590565b60008160005481101561088857600081815260046020526040902054600160e01b8116610886575b806107e1575060001901600081815260046020526040902054610868565b505b604051636f96cda160e11b815260040160405180910390fd5b60006108ac82610840565b9050836001600160a01b0316816001600160a01b0316146108df5760405162a1148160e81b815260040160405180910390fd5b6000828152600660205260408120546001600160a01b039081169190861633148061090f575061090f8633610311565b8061092257506001600160a01b03821633145b90508061094257604051632ce44b5f60e11b815260040160405180910390fd5b8461096057604051633a954ecd60e21b815260040160405180910390fd5b8115610990576000848152600660205260409020805473ffffffffffffffffffffffffffffffffffffffff191690555b6001600160a01b03868116600090815260056020908152604080832080546000190190559288168252828220805460010190558682526004905220600160e11b4260a01b871781179091558316610a155760018401600081815260046020526040902054610a13576000548114610a135760008181526004602052604090208490555b505b83856001600160a01b0316876001600160a01b03167fddf252ad1be2c89b69c2b068fc378daa952ba7f163c4a11628f55a4df523b3ef60405160405180910390a4505050505050565b6000610a6983610840565b60008481526006602052604090205490915081906001600160a01b03168315610adf576000336001600160a01b0384161480610aaa5750610aaa8333610311565b80610abd57506001600160a01b03821633145b905080610add57604051632ce44b5f60e11b815260040160405180910390fd5b505b8015610b0f576000858152600660205260409020805473ffffffffffffffffffffffffffffffffffffffff191690555b6001600160a01b038216600090815260056020908152604080832080546fffffffffffffffffffffffffffffffff01905587835260049091529020600360e01b4260a01b8417179055600160e11b8316610b975760018501600081815260046020526040902054610b95576000548114610b955760008181526004602052604090208490555b505b60405185906000906001600160a01b038516907fddf252ad1be2c89b69c2b068fc378daa952ba7f163c4a11628f55a4df523b3ef908390a450506001805481019055505050565b61066d828260405180602001604052806000815250610d9a565b604051630a85bd0160e11b81526000906001600160a01b0385169063150b7a0290610c2d903390899088908890600401611221565b6020604051808303816000875af1925050508015610c68575060408051601f3d908101601f19168201909252610c659181019061125d565b60015b610cc3573d808015610c96576040519150601f19603f3d011682016040523d82523d6000602084013e610c9b565b606091505b508051610cbb576040516368d2bf6b60e11b815260040160405180910390fd5b805181602001fd5b6001600160e01b031916630a85bd0160e11b149050949350505050565b604080516080810191829052607f0190826030600a8206018353600a90045b8015610d1d57600183039250600a81066030018353600a9004610cff565b50819003601f19909101908152919050565b60408051606081018252600080825260208201819052918101919091526000828152600460205260409020546103d590604080516060810182526001600160a01b038316815260a083901c67ffffffffffffffff166020820152600160e01b90921615159082015290565b60005483610dba57604051622e076360e81b815260040160405180910390fd5b82610dd85760405163b562e8dd60e01b815260040160405180910390fd5b6001600160a01b03841660008181526005602090815260408083208054680100000000000000018902019055848352600490915290204260a01b86176001861460e11b1790558190818501903b15610ead575b60405182906001600160a01b038816906000907fddf252ad1be2c89b69c2b068fc378daa952ba7f163c4a11628f55a4df523b3ef908290a4610e766000878480600101955087610bf8565b610e93576040516368d2bf6b60e11b815260040160405180910390fd5b808210610e2b578260005414610ea857600080fd5b610ef2565b5b6040516001830192906001600160a01b038816906000907fddf252ad1be2c89b69c2b068fc378daa952ba7f163c4a11628f55a4df523b3ef908290a4808210610eae575b5060009081556107509085838684565b6001600160e01b0319811681146105f557600080fd5b600060208284031215610f2a57600080fd5b81356107e181610f02565b60005b83811015610f50578181015183820152602001610f38565b838111156107505750506000910152565b60008151808452610f79816020860160208601610f35565b601f01601f19169290920160200192915050565b6020815260006107e16020830184610f61565b600060208284031215610fb257600080fd5b5035919050565b80356001600160a01b0381168114610fd057600080fd5b919050565b60008060408385031215610fe857600080fd5b610ff183610fb9565b946020939093013593505050565b60008060006060848603121561101457600080fd5b61101d84610fb9565b925061102b60208501610fb9565b9150604084013590509250925092565b60006020828403121561104d57600080fd5b6107e182610fb9565b6000806040838503121561106957600080fd5b61107283610fb9565b91506020830135801515811461108757600080fd5b809150509250929050565b634e487b7160e01b600052604160045260246000fd5b600080600080608085870312156110be57600080fd5b6110c785610fb9565b93506110d560208601610fb9565b925060408501359150606085013567ffffffffffffffff808211156110f957600080fd5b818701915087601f83011261110d57600080fd5b81358181111561111f5761111f611092565b604051601f8201601f19908116603f0116810190838211818310171561114757611147611092565b816040528281528a602084870101111561116057600080fd5b82602086016020830137600060208483010152809550505050505092959194509250565b6000806040838503121561119757600080fd5b6111a083610fb9565b91506111ae60208401610fb9565b90509250929050565b600181811c908216806111cb57607f821691505b602082108114156111ec57634e487b7160e01b600052602260045260246000fd5b50919050565b60008351611204818460208801610f35565b835190830190611218818360208801610f35565b01949350505050565b60006001600160a01b038087168352808616602084015250836040830152608060608301526112536080830184610f61565b9695505050505050565b60006020828403121561126f57600080fd5b81516107e181610f0256fea264697066735822122022109d3792461b10f68552bc9cf8a948e7f007863f83b84d8e3a68b4564298b264736f6c634300080b0033",
  "linkReferences": {},
  "deployedLinkReferences": {}
}