{
  "_format": "hh-sol-artifact-1",
  "contractName": "ERC721AMock",
  "sourceName": "contracts/mocks/ERC721AMock.sol",
  "abi": [
    {
      "inputs": [
        {
          "internalType": "string",
          "name": "name_",
          "type": "string"
        },
        {
          "internalType": "string",
          "name": "symbol_",
          "type": "string"
        }
      ],
      "stateMutability": "nonpayable",
      "type": "constructor"
    },
    {
      "inputs": [],
      "name": "ApprovalCallerNotOwnerNorApproved",
      "type": "error"
    },
    {
      "inputs": [],
      "name": "ApprovalQueryForNonexistentToken",
      "type": "error"
    },
    {
      "inputs": [],
      "name": "ApprovalToCurrentOwner",
      "type": "error"
    },
    {
      "inputs": [],
      "name": "ApproveToCaller",
      "type": "error"
    },
    {
      "inputs": [],
      "name": "BalanceQueryForZeroAddress",
      "type": "error"
    },
    {
      "inputs": [],
      "name": "MintToZeroAddress",
      "type": "error"
    },
    {
      "inputs": [],
      "name": "MintZeroQuantity",
      "type": "error"
    },
    {
      "inputs": [],
      "name": "OwnerQueryForNonexistentToken",
      "type": "error"
    },
    {
      "inputs": [],
      "name": "TransferCallerNotOwnerNorApproved",
      "type": "error"
    },
    {
      "inputs": [],
      "name": "TransferFromIncorrectOwner",
      "type": "error"
    },
    {
      "inputs": [],
      "name": "TransferToNonERC721ReceiverImplementer",
      "type": "error"
    },
    {
      "inputs": [],
      "name": "TransferToZeroAddress",
      "type": "error"
    },
    {
      "inputs": [],
      "name": "URIQueryForNonexistentToken",
      "type": "error"
    },
    {
      "anonymous": false,
      "inputs": [
        {
          "indexed": true,
          "internalType": "address",
          "name": "owner",
          "type": "address"
        },
        {
          "indexed": true,
          "internalType": "address",
          "name": "approved",
          "type": "address"
        },
        {
          "indexed": true,
          "internalType": "uint256",
          "name": "tokenId",
          "type": "uint256"
        }
      ],
      "name": "Approval",
      "type": "event"
    },
    {
      "anonymous": false,
      "inputs": [
        {
          "indexed": true,
          "internalType": "address",
          "name": "owner",
          "type": "address"
        },
        {
          "indexed": true,
          "internalType": "address",
          "name": "operator",
          "type": "address"
        },
        {
          "indexed": false,
          "internalType": "bool",
          "name": "approved",
          "type": "bool"
        }
      ],
      "name": "ApprovalForAll",
      "type": "event"
    },
    {
      "anonymous": false,
      "inputs": [
        {
          "indexed": true,
          "internalType": "address",
          "name": "from",
          "type": "address"
        },
        {
          "indexed": true,
          "internalType": "address",
          "name": "to",
          "type": "address"
        },
        {
          "indexed": true,
          "internalType": "uint256",
          "name": "tokenId",
          "type": "uint256"
        }
      ],
      "name": "Transfer",
      "type": "event"
    },
    {
      "inputs": [
        {
          "internalType": "address",
          "name": "to",
          "type": "address"
        },
        {
          "internalType": "uint256",
          "name": "tokenId",
          "type": "uint256"
        }
      ],
      "name": "approve",
      "outputs": [],
      "stateMutability": "nonpayable",
      "type": "function"
    },
    {
      "inputs": [
        {
          "internalType": "address",
          "name": "owner",
          "type": "address"
        }
      ],
      "name": "balanceOf",
      "outputs": [
        {
          "internalType": "uint256",
          "name": "",
          "type": "uint256"
        }
      ],
      "stateMutability": "view",
      "type": "function"
    },
    {
      "inputs": [],
      "name": "baseURI",
      "outputs": [
        {
          "internalType": "string",
          "name": "",
          "type": "string"
        }
      ],
      "stateMutability": "view",
      "type": "function"
    },
    {
      "inputs": [
        {
          "internalType": "uint256",
          "name": "tokenId",
          "type": "uint256"
        }
      ],
      "name": "burn",
      "outputs": [],
      "stateMutability": "nonpayable",
      "type": "function"
    },
    {
      "inputs": [
        {
          "internalType": "uint256",
          "name": "tokenId",
          "type": "uint256"
        },
        {
          "internalType": "bool",
          "name": "approvalCheck",
          "type": "bool"
        }
      ],
      "name": "burn",
      "outputs": [],
      "stateMutability": "nonpayable",
      "type": "function"
    },
    {
      "inputs": [
        {
          "internalType": "uint256",
          "name": "tokenId",
          "type": "uint256"
        }
      ],
      "name": "exists",
      "outputs": [
        {
          "internalType": "bool",
          "name": "",
          "type": "bool"
        }
      ],
      "stateMutability": "view",
      "type": "function"
    },
    {
      "inputs": [
        {
          "internalType": "uint256",
          "name": "tokenId",
          "type": "uint256"
        }
      ],
      "name": "getApproved",
      "outputs": [
        {
          "internalType": "address",
          "name": "",
          "type": "address"
        }
      ],
      "stateMutability": "view",
      "type": "function"
    },
    {
      "inputs": [
        {
          "internalType": "address",
          "name": "owner",
          "type": "address"
        }
      ],
      "name": "getAux",
      "outputs": [
        {
          "internalType": "uint64",
          "name": "",
          "type": "uint64"
        }
      ],
      "stateMutability": "view",
      "type": "function"
    },
    {
      "inputs": [
        {
          "internalType": "uint256",
          "name": "index",
          "type": "uint256"
        }
      ],
      "name": "getOwnershipAt",
      "outputs": [
        {
          "components": [
            {
              "internalType": "address",
              "name": "addr",
              "type": "address"
            },
            {
              "internalType": "uint64",
              "name": "startTimestamp",
              "type": "uint64"
            },
            {
              "internalType": "bool",
              "name": "burned",
              "type": "bool"
            }
          ],
          "internalType": "struct IERC721A.TokenOwnership",
          "name": "",
          "type": "tuple"
        }
      ],
      "stateMutability": "view",
      "type": "function"
    },
    {
      "inputs": [
        {
          "internalType": "uint256",
          "name": "index",
          "type": "uint256"
        }
      ],
      "name": "getOwnershipOf",
      "outputs": [
        {
          "components": [
            {
              "internalType": "address",
              "name": "addr",
              "type": "address"
            },
            {
              "internalType": "uint64",
              "name": "startTimestamp",
              "type": "uint64"
            },
            {
              "internalType": "bool",
              "name": "burned",
              "type": "bool"
            }
          ],
          "internalType": "struct IERC721A.TokenOwnership",
          "name": "",
          "type": "tuple"
        }
      ],
      "stateMutability": "view",
      "type": "function"
    },
    {
      "inputs": [
        {
          "internalType": "uint256",
          "name": "index",
          "type": "uint256"
        }
      ],
      "name": "initializeOwnershipAt",
      "outputs": [],
      "stateMutability": "nonpayable",
      "type": "function"
    },
    {
      "inputs": [
        {
          "internalType": "address",
          "name": "owner",
          "type": "address"
        },
        {
          "internalType": "address",
          "name": "operator",
          "type": "address"
        }
      ],
      "name": "isApprovedForAll",
      "outputs": [
        {
          "internalType": "bool",
          "name": "",
          "type": "bool"
        }
      ],
      "stateMutability": "view",
      "type": "function"
    },
    {
      "inputs": [
        {
          "internalType": "address",
          "name": "to",
          "type": "address"
        },
        {
          "internalType": "uint256",
          "name": "quantity",
          "type": "uint256"
        }
      ],
      "name": "mint",
      "outputs": [],
      "stateMutability": "nonpayable",
      "type": "function"
    },
    {
      "inputs": [],
      "name": "mintedSoFar",
      "outputs": [
        {
          "internalType": "uint256",
          "name": "",
          "type": "uint256"
        }
      ],
      "stateMutability": "view",
      "type": "function"
    },
    {
      "inputs": [],
      "name": "name",
      "outputs": [
        {
          "internalType": "string",
          "name": "",
          "type": "string"
        }
      ],
      "stateMutability": "view",
      "type": "function"
    },
    {
      "inputs": [],
      "name": "nextTokenId",
      "outputs": [
        {
          "internalType": "uint256",
          "name": "",
          "type": "uint256"
        }
      ],
      "stateMutability": "view",
      "type": "function"
    },
    {
      "inputs": [
        {
          "internalType": "address",
          "name": "owner",
          "type": "address"
        }
      ],
      "name": "numberMinted",
      "outputs": [
        {
          "internalType": "uint256",
          "name": "",
          "type": "uint256"
        }
      ],
      "stateMutability": "view",
      "type": "function"
    },
    {
      "inputs": [
        {
          "internalType": "uint256",
          "name": "tokenId",
          "type": "uint256"
        }
      ],
      "name": "ownerOf",
      "outputs": [
        {
          "internalType": "address",
          "name": "",
          "type": "address"
        }
      ],
      "stateMutability": "view",
      "type": "function"
    },
    {
      "inputs": [
        {
          "internalType": "address",
          "name": "to",
          "type": "address"
        },
        {
          "internalType": "uint256",
          "name": "quantity",
          "type": "uint256"
        },
        {
          "internalType": "bytes",
          "name": "_data",
          "type": "bytes"
        }
      ],
      "name": "safeMint",
      "outputs": [],
      "stateMutability": "nonpayable",
      "type": "function"
    },
    {
      "inputs": [
        {
          "internalType": "address",
          "name": "to",
          "type": "address"
        },
        {
          "internalType": "uint256",
          "name": "quantity",
          "type": "uint256"
        }
      ],
      "name": "safeMint",
      "outputs": [],
      "stateMutability": "nonpayable",
      "type": "function"
    },
    {
      "inputs": [
        {
          "internalType": "address",
          "name": "from",
          "type": "address"
        },
        {
          "internalType": "address",
          "name": "to",
          "type": "address"
        },
        {
          "internalType": "uint256",
          "name": "tokenId",
          "type": "uint256"
        }
      ],
      "name": "safeTransferFrom",
      "outputs": [],
      "stateMutability": "nonpayable",
      "type": "function"
    },
    {
      "inputs": [
        {
          "internalType": "address",
          "name": "from",
          "type": "address"
        },
        {
          "internalType": "address",
          "name": "to",
          "type": "address"
        },
        {
          "internalType": "uint256",
          "name": "tokenId",
          "type": "uint256"
        },
        {
          "internalType": "bytes",
          "name": "_data",
          "type": "bytes"
        }
      ],
      "name": "safeTransferFrom",
      "outputs": [],
      "stateMutability": "nonpayable",
      "type": "function"
    },
    {
      "inputs": [
        {
          "internalType": "address",
          "name": "operator",
          "type": "address"
        },
        {
          "internalType": "bool",
          "name": "approved",
          "type": "bool"
        }
      ],
      "name": "setApprovalForAll",
      "outputs": [],
      "stateMutability": "nonpayable",
      "type": "function"
    },
    {
      "inputs": [
        {
          "internalType": "address",
          "name": "owner",
          "type": "address"
        },
        {
          "internalType": "uint64",
          "name": "aux",
          "type": "uint64"
        }
      ],
      "name": "setAux",
      "outputs": [],
      "stateMutability": "nonpayable",
      "type": "function"
    },
    {
      "inputs": [
        {
          "internalType": "bytes4",
          "name": "interfaceId",
          "type": "bytes4"
        }
      ],
      "name": "supportsInterface",
      "outputs": [
        {
          "internalType": "bool",
          "name": "",
          "type": "bool"
        }
      ],
      "stateMutability": "view",
      "type": "function"
    },
    {
      "inputs": [],
      "name": "symbol",
      "outputs": [
        {
          "internalType": "string",
          "name": "",
          "type": "string"
        }
      ],
      "stateMutability": "view",
      "type": "function"
    },
    {
      "inputs": [
        {
          "internalType": "uint256",
          "name": "x",
          "type": "uint256"
        }
      ],
      "name": "toString",
      "outputs": [
        {
          "internalType": "string",
          "name": "",
          "type": "string"
        }
      ],
      "stateMutability": "pure",
      "type": "function"
    },
    {
      "inputs": [
        {
          "internalType": "uint256",
          "name": "tokenId",
          "type": "uint256"
        }
      ],
      "name": "tokenURI",
      "outputs": [
        {
          "internalType": "string",
          "name": "",
          "type": "string"
        }
      ],
      "stateMutability": "view",
      "type": "function"
    },
    {
      "inputs": [],
      "name": "totalBurned",
      "outputs": [
        {
          "internalType": "uint256",
          "name": "",
          "type": "uint256"
        }
      ],
      "stateMutability": "view",
      "type": "function"
    },
    {
      "inputs": [],
      "name": "totalMinted",
      "outputs": [
        {
          "internalType": "uint256",
          "name": "",
          "type": "uint256"
        }
      ],
      "stateMutability": "view",
      "type": "function"
    },
    {
      "inputs": [],
      "name": "totalSupply",
      "outputs": [
        {
          "internalType": "uint256",
          "name": "",
          "type": "uint256"
        }
      ],
      "stateMutability": "view",
      "type": "function"
    },
    {
      "inputs": [
        {
          "internalType": "address",
          "name": "from",
          "type": "address"
        },
        {
          "internalType": "address",
          "name": "to",
          "type": "address"
        },
        {
          "internalType": "uint256",
          "name": "tokenId",
          "type": "uint256"
        }
      ],
      "name": "transferFrom",
      "outputs": [],
      "stateMutability": "nonpayable",
      "type": "function"
    }
  ],
  "bytecode": "0x60806040523480156200001157600080fd5b506040516200197f3803806200197f8339810160408190526200003491620001e6565b8151829082906200004d90600290602085019062000073565b5080516200006390600390602084019062000073565b5060008055506200028d92505050565b828054620000819062000250565b90600052602060002090601f016020900481019282620000a55760008555620000f0565b82601f10620000c057805160ff1916838001178555620000f0565b82800160010185558215620000f0579182015b82811115620000f0578251825591602001919060010190620000d3565b50620000fe92915062000102565b5090565b5b80821115620000fe576000815560010162000103565b634e487b7160e01b600052604160045260246000fd5b600082601f8301126200014157600080fd5b81516001600160401b03808211156200015e576200015e62000119565b604051601f8301601f19908116603f0116810190828211818310171562000189576200018962000119565b81604052838152602092508683858801011115620001a657600080fd5b600091505b83821015620001ca5785820183015181830184015290820190620001ab565b83821115620001dc5760008385830101525b9695505050505050565b60008060408385031215620001fa57600080fd5b82516001600160401b03808211156200021257600080fd5b62000220868387016200012f565b935060208501519150808211156200023757600080fd5b5062000246858286016200012f565b9150509250929050565b600181811c908216806200026557607f821691505b602082108114156200028757634e487b7160e01b600052602260045260246000fd5b50919050565b6116e2806200029d6000396000f3fe608060405234801561001057600080fd5b50600436106101f05760003560e01c806370a082311161010f578063a2309ff8116100a2578063d89135cd11610071578063d89135cd14610483578063dc33e6811461048b578063e985e9c51461049e578063f2523633146104da57600080fd5b8063a2309ff8146103d5578063b88d4fde14610431578063bf0b175e14610444578063c87b56dd1461047057600080fd5b806395d89b41116100de57806395d89b41146103f05780639fac68cb146103f8578063a14481941461040b578063a22cb4651461041e57600080fd5b806370a08231146103c257806375794a3c146103d55780638832e6e3146103dd57806393bd3da5146103d557600080fd5b806342966c681161018757806353b1233d1161015657806353b1233d146103815780636352211e146103945780636900a3ae146103a75780636c0360eb146103ba57600080fd5b806342966c68146102c1578063453ab141146102d45780634f558e791461032457806352d8a4d11461033757600080fd5b806318160ddd116101c357806318160ddd1461027257806323b872dd1461028857806340c10f191461029b57806342842e0e146102ae57600080fd5b806301ffc9a7146101f557806306fdde031461021d578063081812fc14610232578063095ea7b31461025d575b600080fd5b610208610203366004611275565b6104ed565b60405190151581526020015b60405180910390f35b61022561053f565b60405161021491906112ea565b6102456102403660046112fd565b6105d1565b6040516001600160a01b039091168152602001610214565b61027061026b366004611332565b610615565b005b600154600054035b604051908152602001610214565b61027061029636600461135c565b6106f5565b6102706102a9366004611332565b610705565b6102706102bc36600461135c565b610713565b6102706102cf3660046112fd565b61072e565b6102706102e2366004611398565b6001600160a01b0382166000908152600560205260409020805460c083901b77ffffffffffffffffffffffffffffffffffffffffffffffff9091161790555050565b6102086103323660046112fd565b61073a565b61034a6103453660046112fd565b610745565b6040805182516001600160a01b0316815260208084015167ffffffffffffffff169082015291810151151590820152606001610214565b61027061038f3660046112fd565b61076b565b6102456103a23660046112fd565b610774565b6102256103b53660046112fd565b61077f565b61022561078a565b61027a6103d03660046113dc565b6107a6565b60005461027a565b6102706103eb36600461149a565b6107ec565b6102256107f7565b610270610406366004611501565b610806565b610270610419366004611332565b610810565b61027061042c36600461152d565b61081a565b61027061043f366004611557565b6108b0565b6104576104523660046113dc565b6108fa565b60405167ffffffffffffffff9091168152602001610214565b61022561047e3660046112fd565b61091b565b61027a6109ad565b61027a6104993660046113dc565b6109b8565b6102086104ac3660046115bf565b6001600160a01b03918216600090815260076020908152604080832093909416825291909152205460ff1690565b61034a6104e83660046112fd565b6109e3565b60006301ffc9a760e01b6001600160e01b03198316148061051e57506380ac58cd60e01b6001600160e01b03198316145b806105395750635b5e139f60e01b6001600160e01b03198316145b92915050565b60606002805461054e906115e9565b80601f016020809104026020016040519081016040528092919081815260200182805461057a906115e9565b80156105c75780601f1061059c576101008083540402835291602001916105c7565b820191906000526020600020905b8154815290600101906020018083116105aa57829003601f168201915b5050505050905090565b60006105dc82610a6f565b6105f9576040516333d1c03960e21b815260040160405180910390fd5b506000908152600660205260409020546001600160a01b031690565b600061062082610a96565b9050806001600160a01b0316836001600160a01b031614156106555760405163250fdee360e21b815260040160405180910390fd5b336001600160a01b0382161461068c5761066f81336104ac565b61068c576040516367d9dca160e11b815260040160405180910390fd5b600082815260066020526040808220805473ffffffffffffffffffffffffffffffffffffffff19166001600160a01b0387811691821790925591518593918516917f8c5be1e5ebec7d5bd14f71427d1e84f3dd0314c0f7b2291e5b200ac8c7c3b92591a4505050565b610700838383610af7565b505050565b61070f8282610cb4565b5050565b610700838383604051806020016040528060008152506108b0565b61073781610d89565b50565b600061053982610a6f565b604080516060810182526000808252602082018190529181019190915261053982610d94565b61073781610df8565b600061053982610a96565b606061053982610e26565b60606107a160408051602081019091526000815290565b905090565b6000816107c6576040516323d3ad8160e21b815260040160405180910390fd5b506001600160a01b031660009081526005602052604090205467ffffffffffffffff1690565b610700838383610e75565b60606003805461054e906115e9565b61070f8282610fdd565b61070f828261115d565b6001600160a01b0382163314156108445760405163b06307db60e01b815260040160405180910390fd5b3360008181526007602090815260408083206001600160a01b03871680855290835292819020805460ff191686151590811790915590519081529192917f17307eab39ab6107e8899845ad3d59bd9653f200f220920489ca2b5937696c31910160405180910390a35050565b6108bb848484610af7565b6001600160a01b0383163b156108f4576108d784848484611177565b6108f4576040516368d2bf6b60e11b815260040160405180910390fd5b50505050565b6001600160a01b03811660009081526005602052604081205460c01c610539565b606061092682610a6f565b61094357604051630a14c4b560e41b815260040160405180910390fd5b600061095a60408051602081019091526000815290565b905080516000141561097b57604051806020016040528060008152506109a6565b8061098584610e26565b604051602001610996929190611624565b6040516020818303038152906040525b9392505050565b60006107a160015490565b6001600160a01b0381166000908152600560205260408082205467ffffffffffffffff911c16610539565b604080516060810182526000808252602082018190529181019190915261053982604080516060810182526000808252602082018190529181019190915260008281526004602052604090205461053990604080516060810182526001600160a01b038316815260a083901c67ffffffffffffffff166020820152600160e01b90921615159082015290565b6000805482108015610539575050600090815260046020526040902054600160e01b161590565b600081600054811015610ade57600081815260046020526040902054600160e01b8116610adc575b806109a6575060001901600081815260046020526040902054610abe565b505b604051636f96cda160e11b815260040160405180910390fd5b6000610b0282610a96565b9050836001600160a01b0316816001600160a01b031614610b355760405162a1148160e81b815260040160405180910390fd5b6000828152600660205260408120546001600160a01b0390811691908616331480610b655750610b6586336104ac565b80610b7857506001600160a01b03821633145b905080610b9857604051632ce44b5f60e11b815260040160405180910390fd5b84610bb657604051633a954ecd60e21b815260040160405180910390fd5b8115610be6576000848152600660205260409020805473ffffffffffffffffffffffffffffffffffffffff191690555b6001600160a01b03868116600090815260056020908152604080832080546000190190559288168252828220805460010190558682526004905220600160e11b4260a01b871781179091558316610c6b5760018401600081815260046020526040902054610c69576000548114610c695760008181526004602052604090208490555b505b83856001600160a01b0316876001600160a01b03167fddf252ad1be2c89b69c2b068fc378daa952ba7f163c4a11628f55a4df523b3ef60405160405180910390a4505050505050565b60005482610cd457604051622e076360e81b815260040160405180910390fd5b81610cf25760405163b562e8dd60e01b815260040160405180910390fd5b6001600160a01b03831660009081526005602090815260408083208054680100000000000000018702019055838352600490915290204260a01b84176001841460e11b179055808083015b6040516001830192906001600160a01b038716906000907fddf252ad1be2c89b69c2b068fc378daa952ba7f163c4a11628f55a4df523b3ef908290a4808210610d3d5750600055505050565b610737816000610fdd565b6040805160608101825260008082526020820181905291810191909152610539610dbd83610a96565b604080516060810182526001600160a01b038316815260a083901c67ffffffffffffffff166020820152600160e01b90921615159082015290565b60008181526004602052604090205461073757610e1481610a96565b60008281526004602052604090205550565b604080516080810191829052607f0190826030600a8206018353600a90045b8015610e6357600183039250600a81066030018353600a9004610e45565b50819003601f19909101908152919050565b60005483610e9557604051622e076360e81b815260040160405180910390fd5b82610eb35760405163b562e8dd60e01b815260040160405180910390fd5b6001600160a01b03841660008181526005602090815260408083208054680100000000000000018902019055848352600490915290204260a01b86176001861460e11b1790558190818501903b15610f88575b60405182906001600160a01b038816906000907fddf252ad1be2c89b69c2b068fc378daa952ba7f163c4a11628f55a4df523b3ef908290a4610f516000878480600101955087611177565b610f6e576040516368d2bf6b60e11b815260040160405180910390fd5b808210610f06578260005414610f8357600080fd5b610fcd565b5b6040516001830192906001600160a01b038816906000907fddf252ad1be2c89b69c2b068fc378daa952ba7f163c4a11628f55a4df523b3ef908290a4808210610f89575b5060009081556108f49085838684565b6000610fe883610a96565b60008481526006602052604090205490915081906001600160a01b0316831561105e576000336001600160a01b0384161480611029575061102983336104ac565b8061103c57506001600160a01b03821633145b90508061105c57604051632ce44b5f60e11b815260040160405180910390fd5b505b801561108e576000858152600660205260409020805473ffffffffffffffffffffffffffffffffffffffff191690555b6001600160a01b038216600090815260056020908152604080832080546fffffffffffffffffffffffffffffffff01905587835260049091529020600360e01b4260a01b8417179055600160e11b831661111657600185016000818152600460205260409020546111145760005481146111145760008181526004602052604090208490555b505b60405185906000906001600160a01b038516907fddf252ad1be2c89b69c2b068fc378daa952ba7f163c4a11628f55a4df523b3ef908390a450506001805481019055505050565b61070f828260405180602001604052806000815250610e75565b604051630a85bd0160e11b81526000906001600160a01b0385169063150b7a02906111ac903390899088908890600401611653565b6020604051808303816000875af19250505080156111e7575060408051601f3d908101601f191682019092526111e49181019061168f565b60015b611242573d808015611215576040519150601f19603f3d011682016040523d82523d6000602084013e61121a565b606091505b50805161123a576040516368d2bf6b60e11b815260040160405180910390fd5b805181602001fd5b6001600160e01b031916630a85bd0160e11b149050949350505050565b6001600160e01b03198116811461073757600080fd5b60006020828403121561128757600080fd5b81356109a68161125f565b60005b838110156112ad578181015183820152602001611295565b838111156108f45750506000910152565b600081518084526112d6816020860160208601611292565b601f01601f19169290920160200192915050565b6020815260006109a660208301846112be565b60006020828403121561130f57600080fd5b5035919050565b80356001600160a01b038116811461132d57600080fd5b919050565b6000806040838503121561134557600080fd5b61134e83611316565b946020939093013593505050565b60008060006060848603121561137157600080fd5b61137a84611316565b925061138860208501611316565b9150604084013590509250925092565b600080604083850312156113ab57600080fd5b6113b483611316565b9150602083013567ffffffffffffffff811681146113d157600080fd5b809150509250929050565b6000602082840312156113ee57600080fd5b6109a682611316565b634e487b7160e01b600052604160045260246000fd5b600082601f83011261141e57600080fd5b813567ffffffffffffffff80821115611439576114396113f7565b604051601f8301601f19908116603f01168101908282118183101715611461576114616113f7565b8160405283815286602085880101111561147a57600080fd5b836020870160208301376000602085830101528094505050505092915050565b6000806000606084860312156114af57600080fd5b6114b884611316565b925060208401359150604084013567ffffffffffffffff8111156114db57600080fd5b6114e78682870161140d565b9150509250925092565b8035801515811461132d57600080fd5b6000806040838503121561151457600080fd5b82359150611524602084016114f1565b90509250929050565b6000806040838503121561154057600080fd5b61154983611316565b9150611524602084016114f1565b6000806000806080858703121561156d57600080fd5b61157685611316565b935061158460208601611316565b925060408501359150606085013567ffffffffffffffff8111156115a757600080fd5b6115b38782880161140d565b91505092959194509250565b600080604083850312156115d257600080fd5b6115db83611316565b915061152460208401611316565b600181811c908216806115fd57607f821691505b6020821081141561161e57634e487b7160e01b600052602260045260246000fd5b50919050565b60008351611636818460208801611292565b83519083019061164a818360208801611292565b01949350505050565b60006001600160a01b0380871683528086166020840152508360408301526080606083015261168560808301846112be565b9695505050505050565b6000602082840312156116a157600080fd5b81516109a68161125f56fea264697066735822122066b47a30f652ba59f18b051e27a8849284d42bdf6c411abe8dc5b803e76ed01364736f6c634300080b0033",
  "linkReferences": {},
  "deployedLinkReferences": {}
}