{
  "_format": "hh-sol-artifact-1",
  "contractName": "ERC721AQueryableStartTokenIdMock",
  "sourceName": "contracts/mocks/ERC721AQueryableStartTokenIdMock.sol",
  "abi": [
    {
      "inputs": [
        {
          "internalType": "string",
          "name": "name_",
          "type": "string"
        },
        {
          "internalType": "string",
          "name": "symbol_",
          "type": "string"
        },
        {
          "internalType": "uint256",
          "name": "startTokenId_",
          "type": "uint256"
        }
      ],
      "stateMutability": "nonpayable",
      "type": "constructor"
    },
    {
      "inputs": [],
      "name": "ApprovalCallerNotOwnerNorApproved",
      "type": "error"
    },
    {
      "inputs": [],
      "name": "ApprovalQueryForNonexistentToken",
      "type": "error"
    },
    {
      "inputs": [],
      "name": "ApprovalToCurrentOwner",
      "type": "error"
    },
    {
      "inputs": [],
      "name": "ApproveToCaller",
      "type": "error"
    },
    {
      "inputs": [],
      "name": "BalanceQueryForZeroAddress",
      "type": "error"
    },
    {
      "inputs": [],
      "name": "InvalidQueryRange",
      "type": "error"
    },
    {
      "inputs": [],
      "name": "MintToZeroAddress",
      "type": "error"
    },
    {
      "inputs": [],
      "name": "MintZeroQuantity",
      "type": "error"
    },
    {
      "inputs": [],
      "name": "OwnerQueryForNonexistentToken",
      "type": "error"
    },
    {
      "inputs": [],
      "name": "TransferCallerNotOwnerNorApproved",
      "type": "error"
    },
    {
      "inputs": [],
      "name": "TransferFromIncorrectOwner",
      "type": "error"
    },
    {
      "inputs": [],
      "name": "TransferToNonERC721ReceiverImplementer",
      "type": "error"
    },
    {
      "inputs": [],
      "name": "TransferToZeroAddress",
      "type": "error"
    },
    {
      "inputs": [],
      "name": "URIQueryForNonexistentToken",
      "type": "error"
    },
    {
      "anonymous": false,
      "inputs": [
        {
          "indexed": true,
          "internalType": "address",
          "name": "owner",
          "type": "address"
        },
        {
          "indexed": true,
          "internalType": "address",
          "name": "approved",
          "type": "address"
        },
        {
          "indexed": true,
          "internalType": "uint256",
          "name": "tokenId",
          "type": "uint256"
        }
      ],
      "name": "Approval",
      "type": "event"
    },
    {
      "anonymous": false,
      "inputs": [
        {
          "indexed": true,
          "internalType": "address",
          "name": "owner",
          "type": "address"
        },
        {
          "indexed": true,
          "internalType": "address",
          "name": "operator",
          "type": "address"
        },
        {
          "indexed": false,
          "internalType": "bool",
          "name": "approved",
          "type": "bool"
        }
      ],
      "name": "ApprovalForAll",
      "type": "event"
    },
    {
      "anonymous": false,
      "inputs": [
        {
          "indexed": true,
          "internalType": "address",
          "name": "from",
          "type": "address"
        },
        {
          "indexed": true,
          "internalType": "address",
          "name": "to",
          "type": "address"
        },
        {
          "indexed": true,
          "internalType": "uint256",
          "name": "tokenId",
          "type": "uint256"
        }
      ],
      "name": "Transfer",
      "type": "event"
    },
    {
      "inputs": [
        {
          "internalType": "address",
          "name": "to",
          "type": "address"
        },
        {
          "internalType": "uint256",
          "name": "tokenId",
          "type": "uint256"
        }
      ],
      "name": "approve",
      "outputs": [],
      "stateMutability": "nonpayable",
      "type": "function"
    },
    {
      "inputs": [
        {
          "internalType": "address",
          "name": "owner",
          "type": "address"
        }
      ],
      "name": "balanceOf",
      "outputs": [
        {
          "internalType": "uint256",
          "name": "",
          "type": "uint256"
        }
      ],
      "stateMutability": "view",
      "type": "function"
    },
    {
      "inputs": [
        {
          "internalType": "uint256",
          "name": "tokenId",
          "type": "uint256"
        }
      ],
      "name": "burn",
      "outputs": [],
      "stateMutability": "nonpayable",
      "type": "function"
    },
    {
      "inputs": [
        {
          "internalType": "uint256",
          "name": "tokenId",
          "type": "uint256"
        }
      ],
      "name": "explicitOwnershipOf",
      "outputs": [
        {
          "components": [
            {
              "internalType": "address",
              "name": "addr",
              "type": "address"
            },
            {
              "internalType": "uint64",
              "name": "startTimestamp",
              "type": "uint64"
            },
            {
              "internalType": "bool",
              "name": "burned",
              "type": "bool"
            }
          ],
          "internalType": "struct IERC721A.TokenOwnership",
          "name": "",
          "type": "tuple"
        }
      ],
      "stateMutability": "view",
      "type": "function"
    },
    {
      "inputs": [
        {
          "internalType": "uint256[]",
          "name": "tokenIds",
          "type": "uint256[]"
        }
      ],
      "name": "explicitOwnershipsOf",
      "outputs": [
        {
          "components": [
            {
              "internalType": "address",
              "name": "addr",
              "type": "address"
            },
            {
              "internalType": "uint64",
              "name": "startTimestamp",
              "type": "uint64"
            },
            {
              "internalType": "bool",
              "name": "burned",
              "type": "bool"
            }
          ],
          "internalType": "struct IERC721A.TokenOwnership[]",
          "name": "",
          "type": "tuple[]"
        }
      ],
      "stateMutability": "view",
      "type": "function"
    },
    {
      "inputs": [
        {
          "internalType": "uint256",
          "name": "tokenId",
          "type": "uint256"
        }
      ],
      "name": "getApproved",
      "outputs": [
        {
          "internalType": "address",
          "name": "",
          "type": "address"
        }
      ],
      "stateMutability": "view",
      "type": "function"
    },
    {
      "inputs": [
        {
          "internalType": "address",
          "name": "owner",
          "type": "address"
        },
        {
          "internalType": "address",
          "name": "operator",
          "type": "address"
        }
      ],
      "name": "isApprovedForAll",
      "outputs": [
        {
          "internalType": "bool",
          "name": "",
          "type": "bool"
        }
      ],
      "stateMutability": "view",
      "type": "function"
    },
    {
      "inputs": [],
      "name": "mintedSoFar",
      "outputs": [
        {
          "internalType": "uint256",
          "name": "",
          "type": "uint256"
        }
      ],
      "stateMutability": "view",
      "type": "function"
    },
    {
      "inputs": [],
      "name": "name",
      "outputs": [
        {
          "internalType": "string",
          "name": "",
          "type": "string"
        }
      ],
      "stateMutability": "view",
      "type": "function"
    },
    {
      "inputs": [
        {
          "internalType": "uint256",
          "name": "tokenId",
          "type": "uint256"
        }
      ],
      "name": "ownerOf",
      "outputs": [
        {
          "internalType": "address",
          "name": "",
          "type": "address"
        }
      ],
      "stateMutability": "view",
      "type": "function"
    },
    {
      "inputs": [
        {
          "internalType": "address",
          "name": "to",
          "type": "address"
        },
        {
          "internalType": "uint256",
          "name": "quantity",
          "type": "uint256"
        }
      ],
      "name": "safeMint",
      "outputs": [],
      "stateMutability": "nonpayable",
      "type": "function"
    },
    {
      "inputs": [
        {
          "internalType": "address",
          "name": "from",
          "type": "address"
        },
        {
          "internalType": "address",
          "name": "to",
          "type": "address"
        },
        {
          "internalType": "uint256",
          "name": "tokenId",
          "type": "uint256"
        }
      ],
      "name": "safeTransferFrom",
      "outputs": [],
      "stateMutability": "nonpayable",
      "type": "function"
    },
    {
      "inputs": [
        {
          "internalType": "address",
          "name": "from",
          "type": "address"
        },
        {
          "internalType": "address",
          "name": "to",
          "type": "address"
        },
        {
          "internalType": "uint256",
          "name": "tokenId",
          "type": "uint256"
        },
        {
          "internalType": "bytes",
          "name": "_data",
          "type": "bytes"
        }
      ],
      "name": "safeTransferFrom",
      "outputs": [],
      "stateMutability": "nonpayable",
      "type": "function"
    },
    {
      "inputs": [
        {
          "internalType": "address",
          "name": "operator",
          "type": "address"
        },
        {
          "internalType": "bool",
          "name": "approved",
          "type": "bool"
        }
      ],
      "name": "setApprovalForAll",
      "outputs": [],
      "stateMutability": "nonpayable",
      "type": "function"
    },
    {
      "inputs": [],
      "name": "startTokenId",
      "outputs": [
        {
          "internalType": "uint256",
          "name": "",
          "type": "uint256"
        }
      ],
      "stateMutability": "view",
      "type": "function"
    },
    {
      "inputs": [
        {
          "internalType": "bytes4",
          "name": "interfaceId",
          "type": "bytes4"
        }
      ],
      "name": "supportsInterface",
      "outputs": [
        {
          "internalType": "bool",
          "name": "",
          "type": "bool"
        }
      ],
      "stateMutability": "view",
      "type": "function"
    },
    {
      "inputs": [],
      "name": "symbol",
      "outputs": [
        {
          "internalType": "string",
          "name": "",
          "type": "string"
        }
      ],
      "stateMutability": "view",
      "type": "function"
    },
    {
      "inputs": [
        {
          "internalType": "uint256",
          "name": "tokenId",
          "type": "uint256"
        }
      ],
      "name": "tokenURI",
      "outputs": [
        {
          "internalType": "string",
          "name": "",
          "type": "string"
        }
      ],
      "stateMutability": "view",
      "type": "function"
    },
    {
      "inputs": [
        {
          "internalType": "address",
          "name": "owner",
          "type": "address"
        }
      ],
      "name": "tokensOfOwner",
      "outputs": [
        {
          "internalType": "uint256[]",
          "name": "",
          "type": "uint256[]"
        }
      ],
      "stateMutability": "view",
      "type": "function"
    },
    {
      "inputs": [
        {
          "internalType": "address",
          "name": "owner",
          "type": "address"
        },
        {
          "internalType": "uint256",
          "name": "start",
          "type": "uint256"
        },
        {
          "internalType": "uint256",
          "name": "stop",
          "type": "uint256"
        }
      ],
      "name": "tokensOfOwnerIn",
      "outputs": [
        {
          "internalType": "uint256[]",
          "name": "",
          "type": "uint256[]"
        }
      ],
      "stateMutability": "view",
      "type": "function"
    },
    {
      "inputs": [],
      "name": "totalSupply",
      "outputs": [
        {
          "internalType": "uint256",
          "name": "",
          "type": "uint256"
        }
      ],
      "stateMutability": "view",
      "type": "function"
    },
    {
      "inputs": [
        {
          "internalType": "address",
          "name": "from",
          "type": "address"
        },
        {
          "internalType": "address",
          "name": "to",
          "type": "address"
        },
        {
          "internalType": "uint256",
          "name": "tokenId",
          "type": "uint256"
        }
      ],
      "name": "transferFrom",
      "outputs": [],
      "stateMutability": "nonpayable",
      "type": "function"
    }
  ],
  "bytecode": "0x60806040523480156200001157600080fd5b5060405162001b9438038062001b948339810160408190526200003491620001f4565b6000819055825183908390829082906200005690600390602085019062000081565b5080516200006c90600490602084019062000081565b5060005460015550620002a495505050505050565b8280546200008f9062000267565b90600052602060002090601f016020900481019282620000b35760008555620000fe565b82601f10620000ce57805160ff1916838001178555620000fe565b82800160010185558215620000fe579182015b82811115620000fe578251825591602001919060010190620000e1565b506200010c92915062000110565b5090565b5b808211156200010c576000815560010162000111565b634e487b7160e01b600052604160045260246000fd5b600082601f8301126200014f57600080fd5b81516001600160401b03808211156200016c576200016c62000127565b604051601f8301601f19908116603f0116810190828211818310171562000197576200019762000127565b81604052838152602092508683858801011115620001b457600080fd5b600091505b83821015620001d85785820183015181830184015290820190620001b9565b83821115620001ea5760008385830101525b9695505050505050565b6000806000606084860312156200020a57600080fd5b83516001600160401b03808211156200022257600080fd5b62000230878388016200013d565b945060208601519150808211156200024757600080fd5b5062000256868287016200013d565b925050604084015190509250925092565b600181811c908216806200027c57607f821691505b602082108114156200029e57634e487b7160e01b600052602260045260246000fd5b50919050565b6118e080620002b46000396000f3fe608060405234801561001057600080fd5b50600436106101825760003560e01c80638462151c116100d8578063a22cb4651161008c578063c87b56dd11610066578063c87b56dd14610339578063e6798baa1461034c578063e985e9c51461035557600080fd5b8063a22cb465146102f3578063b88d4fde14610306578063c23dc68f1461031957600080fd5b806395d89b41116100bd57806395d89b41146102c557806399a2557a146102cd578063a1448194146102e057600080fd5b80638462151c1461029d57806393bd3da5146102bd57600080fd5b806323b872dd1161013a5780635bbb2177116101145780635bbb2177146102575780636352211e1461027757806370a082311461028a57600080fd5b806323b872dd1461021e57806342842e0e1461023157806342966c681461024457600080fd5b8063081812fc1161016b578063081812fc146101c4578063095ea7b3146101ef57806318160ddd1461020457600080fd5b806301ffc9a71461018757806306fdde03146101af575b600080fd5b61019a61019536600461136b565b610391565b60405190151581526020015b60405180910390f35b6101b76103e3565b6040516101a691906113e0565b6101d76101d23660046113f3565b610475565b6040516001600160a01b0390911681526020016101a6565b6102026101fd366004611428565b6104b9565b005b60005460025460015403035b6040519081526020016101a6565b61020261022c366004611452565b6105b6565b61020261023f366004611452565b6105c6565b6102026102523660046113f3565b6105e1565b61026a6102653660046114d5565b6105ef565b6040516101a6919061157b565b6101d76102853660046113f3565b6106b6565b6102106102983660046115e6565b6106c1565b6102b06102ab3660046115e6565b610707565b6040516101a69190611601565b600154610210565b6101b761080b565b6102b06102db366004611639565b61081a565b6102026102ee366004611428565b6109ae565b61020261030136600461166c565b6109bc565b6102026103143660046116a8565b610a52565b61032c6103273660046113f3565b610a9c565b6040516101a69190611768565b6101b76103473660046113f3565b610b17565b61021060005481565b61019a61036336600461179e565b6001600160a01b03918216600090815260086020908152604080832093909416825291909152205460ff1690565b60006301ffc9a760e01b6001600160e01b0319831614806103c257506380ac58cd60e01b6001600160e01b03198316145b806103dd5750635b5e139f60e01b6001600160e01b03198316145b92915050565b6060600380546103f2906117d1565b80601f016020809104026020016040519081016040528092919081815260200182805461041e906117d1565b801561046b5780601f106104405761010080835404028352916020019161046b565b820191906000526020600020905b81548152906001019060200180831161044e57829003601f168201915b5050505050905090565b600061048082610ba8565b61049d576040516333d1c03960e21b815260040160405180910390fd5b506000908152600760205260409020546001600160a01b031690565b60006104c482610be4565b9050806001600160a01b0316836001600160a01b031614156104f95760405163250fdee360e21b815260040160405180910390fd5b336001600160a01b0382161461054d576001600160a01b038116600090815260086020908152604080832033845290915290205460ff1661054d576040516367d9dca160e11b815260040160405180910390fd5b600082815260076020526040808220805473ffffffffffffffffffffffffffffffffffffffff19166001600160a01b0387811691821790925591518593918516917f8c5be1e5ebec7d5bd14f71427d1e84f3dd0314c0f7b2291e5b200ac8c7c3b92591a4505050565b6105c1838383610c54565b505050565b6105c183838360405180602001604052806000815250610a52565b6105ec816001610e2f565b50565b805160609060008167ffffffffffffffff81111561060f5761060f61148e565b60405190808252806020026020018201604052801561065a57816020015b604080516060810182526000808252602080830182905292820152825260001990920191018161062d5790505b50905060005b8281146106ae5761068985828151811061067c5761067c61180c565b6020026020010151610a9c565b82828151811061069b5761069b61180c565b6020908102919091010152600101610660565b509392505050565b60006103dd82610be4565b6000816106e1576040516323d3ad8160e21b815260040160405180910390fd5b506001600160a01b031660009081526006602052604090205467ffffffffffffffff1690565b60606000806000610717856106c1565b905060008167ffffffffffffffff8111156107345761073461148e565b60405190808252806020026020018201604052801561075d578160200160208202803683370190505b50604080516060810182526000808252602082018190529181018290529054919250905b8386146107ff5761079181610fce565b91508160400151156107a2576107f7565b81516001600160a01b0316156107b757815194505b876001600160a01b0316856001600160a01b031614156107f757808387806001019850815181106107ea576107ea61180c565b6020026020010181815250505b600101610781565b50909695505050505050565b6060600480546103f2906117d1565b606081831061083c57604051631960ccad60e11b815260040160405180910390fd5b60008061084860015490565b905061085360005490565b8510156108605760005494505b8084111561086c578093505b6000610877876106c1565b9050848610156108965785850381811015610890578091505b5061089a565b5060005b60008167ffffffffffffffff8111156108b5576108b561148e565b6040519080825280602002602001820160405280156108de578160200160208202803683370190505b509050816108f15793506109a792505050565b60006108fc88610a9c565b90506000816040015161090d575080515b885b88811415801561091f5750848714155b1561099b5761092d81610fce565b925082604001511561093e57610993565b82516001600160a01b03161561095357825191505b8a6001600160a01b0316826001600160a01b0316141561099357808488806001019950815181106109865761098661180c565b6020026020010181815250505b60010161090f565b50505092835250909150505b9392505050565b6109b88282611039565b5050565b6001600160a01b0382163314156109e65760405163b06307db60e01b815260040160405180910390fd5b3360008181526008602090815260408083206001600160a01b03871680855290835292819020805460ff191686151590811790915590519081529192917f17307eab39ab6107e8899845ad3d59bd9653f200f220920489ca2b5937696c31910160405180910390a35050565b610a5d848484610c54565b6001600160a01b0383163b15610a9657610a7984848484611053565b610a96576040516368d2bf6b60e11b815260040160405180910390fd5b50505050565b60408051606081018252600080825260208201819052918101919091526040805160608101825260008082526020820181905291810191909152600054831080610ae857506001548310155b15610af35792915050565b610afc83610fce565b9050806040015115610b0e5792915050565b6109a78361113b565b6060610b2282610ba8565b610b3f57604051630a14c4b560e41b815260040160405180910390fd5b6000610b5660408051602081019091526000815290565b9050805160001415610b7757604051806020016040528060008152506109a7565b80610b818461119f565b604051602001610b92929190611822565b6040516020818303038152906040529392505050565b600081610bb460005490565b11158015610bc3575060015482105b80156103dd575050600090815260056020526040902054600160e01b161590565b60008180610bf160005490565b11610c3b57600154811015610c3b57600081815260056020526040902054600160e01b8116610c39575b806109a7575060001901600081815260056020526040902054610c1b565b505b604051636f96cda160e11b815260040160405180910390fd5b6000610c5f82610be4565b9050836001600160a01b0316816001600160a01b031614610c925760405162a1148160e81b815260040160405180910390fd5b6000828152600760205260408120546001600160a01b0390811691908616331480610ce057506001600160a01b038616600090815260086020908152604080832033845290915290205460ff165b80610cf357506001600160a01b03821633145b905080610d1357604051632ce44b5f60e11b815260040160405180910390fd5b84610d3157604051633a954ecd60e21b815260040160405180910390fd5b8115610d61576000848152600760205260409020805473ffffffffffffffffffffffffffffffffffffffff191690555b6001600160a01b03868116600090815260066020908152604080832080546000190190559288168252828220805460010190558682526005905220600160e11b4260a01b871781179091558316610de65760018401600081815260056020526040902054610de4576001548114610de45760008181526005602052604090208490555b505b83856001600160a01b0316876001600160a01b03167fddf252ad1be2c89b69c2b068fc378daa952ba7f163c4a11628f55a4df523b3ef60405160405180910390a4505050505050565b6000610e3a83610be4565b60008481526007602052604090205490915081906001600160a01b03168315610ece576000336001600160a01b0384161480610e9957506001600160a01b038316600090815260086020908152604080832033845290915290205460ff165b80610eac57506001600160a01b03821633145b905080610ecc57604051632ce44b5f60e11b815260040160405180910390fd5b505b8015610efe576000858152600760205260409020805473ffffffffffffffffffffffffffffffffffffffff191690555b6001600160a01b038216600090815260066020908152604080832080546fffffffffffffffffffffffffffffffff01905587835260059091529020600360e01b4260a01b8417179055600160e11b8316610f865760018501600081815260056020526040902054610f84576001548114610f845760008181526005602052604090208490555b505b60405185906000906001600160a01b038516907fddf252ad1be2c89b69c2b068fc378daa952ba7f163c4a11628f55a4df523b3ef908390a45050600280546001019055505050565b60408051606081018252600080825260208201819052918101919091526000828152600560205260409020546103dd90604080516060810182526001600160a01b038316815260a083901c67ffffffffffffffff166020820152600160e01b90921615159082015290565b6109b88282604051806020016040528060008152506111ee565b604051630a85bd0160e11b81526000906001600160a01b0385169063150b7a0290611088903390899088908890600401611851565b6020604051808303816000875af19250505080156110c3575060408051601f3d908101601f191682019092526110c09181019061188d565b60015b61111e573d8080156110f1576040519150601f19603f3d011682016040523d82523d6000602084013e6110f6565b606091505b508051611116576040516368d2bf6b60e11b815260040160405180910390fd5b805181602001fd5b6001600160e01b031916630a85bd0160e11b149050949350505050565b60408051606081018252600080825260208201819052918101919091526103dd61116483610be4565b604080516060810182526001600160a01b038316815260a083901c67ffffffffffffffff166020820152600160e01b90921615159082015290565b604080516080810191829052607f0190826030600a8206018353600a90045b80156111dc57600183039250600a81066030018353600a90046111be565b50819003601f19909101908152919050565b6001548361120e57604051622e076360e81b815260040160405180910390fd5b8261122c5760405163b562e8dd60e01b815260040160405180910390fd5b6001600160a01b03841660008181526006602090815260408083208054680100000000000000018902019055848352600590915290204260a01b86176001861460e11b1790558190818501903b15611301575b60405182906001600160a01b038816906000907fddf252ad1be2c89b69c2b068fc378daa952ba7f163c4a11628f55a4df523b3ef908290a46112ca6000878480600101955087611053565b6112e7576040516368d2bf6b60e11b815260040160405180910390fd5b80821061127f5782600154146112fc57600080fd5b611346565b5b6040516001830192906001600160a01b038816906000907fddf252ad1be2c89b69c2b068fc378daa952ba7f163c4a11628f55a4df523b3ef908290a4808210611302575b50600155610a96600085838684565b6001600160e01b0319811681146105ec57600080fd5b60006020828403121561137d57600080fd5b81356109a781611355565b60005b838110156113a357818101518382015260200161138b565b83811115610a965750506000910152565b600081518084526113cc816020860160208601611388565b601f01601f19169290920160200192915050565b6020815260006109a760208301846113b4565b60006020828403121561140557600080fd5b5035919050565b80356001600160a01b038116811461142357600080fd5b919050565b6000806040838503121561143b57600080fd5b6114448361140c565b946020939093013593505050565b60008060006060848603121561146757600080fd5b6114708461140c565b925061147e6020850161140c565b9150604084013590509250925092565b634e487b7160e01b600052604160045260246000fd5b604051601f8201601f1916810167ffffffffffffffff811182821017156114cd576114cd61148e565b604052919050565b600060208083850312156114e857600080fd5b823567ffffffffffffffff8082111561150057600080fd5b818501915085601f83011261151457600080fd5b8135818111156115265761152661148e565b8060051b91506115378483016114a4565b818152918301840191848101908884111561155157600080fd5b938501935b8385101561156f57843582529385019390850190611556565b98975050505050505050565b6020808252825182820181905260009190848201906040850190845b818110156107ff576115d383855180516001600160a01b0316825260208082015167ffffffffffffffff16908301526040908101511515910152565b9284019260609290920191600101611597565b6000602082840312156115f857600080fd5b6109a78261140c565b6020808252825182820181905260009190848201906040850190845b818110156107ff5783518352928401929184019160010161161d565b60008060006060848603121561164e57600080fd5b6116578461140c565b95602085013595506040909401359392505050565b6000806040838503121561167f57600080fd5b6116888361140c565b91506020830135801515811461169d57600080fd5b809150509250929050565b600080600080608085870312156116be57600080fd5b6116c78561140c565b935060206116d681870161140c565b935060408601359250606086013567ffffffffffffffff808211156116fa57600080fd5b818801915088601f83011261170e57600080fd5b8135818111156117205761172061148e565b611732601f8201601f191685016114a4565b9150808252898482850101111561174857600080fd5b808484018584013760008482840101525080935050505092959194509250565b81516001600160a01b0316815260208083015167ffffffffffffffff1690820152604080830151151590820152606081016103dd565b600080604083850312156117b157600080fd5b6117ba8361140c565b91506117c86020840161140c565b90509250929050565b600181811c908216806117e557607f821691505b6020821081141561180657634e487b7160e01b600052602260045260246000fd5b50919050565b634e487b7160e01b600052603260045260246000fd5b60008351611834818460208801611388565b835190830190611848818360208801611388565b01949350505050565b60006001600160a01b0380871683528086166020840152508360408301526080606083015261188360808301846113b4565b9695505050505050565b60006020828403121561189f57600080fd5b81516109a78161135556fea2646970667358221220cb11842dcf5e452595ce56ae6bbac269b32fae6e2acdcd1d3be3899011c8c7c064736f6c634300080b0033",
  "linkReferences": {},
  "deployedLinkReferences": {}
}