{
  "_format": "hh-sol-artifact-1",
  "contractName": "ERC721AGasReporterMock",
  "sourceName": "contracts/mocks/ERC721AGasReporterMock.sol",
  "abi": [
    {
      "inputs": [
        {
          "internalType": "string",
          "name": "name_",
          "type": "string"
        },
        {
          "internalType": "string",
          "name": "symbol_",
          "type": "string"
        }
      ],
      "stateMutability": "nonpayable",
      "type": "constructor"
    },
    {
      "inputs": [],
      "name": "ApprovalCallerNotOwnerNorApproved",
      "type": "error"
    },
    {
      "inputs": [],
      "name": "ApprovalQueryForNonexistentToken",
      "type": "error"
    },
    {
      "inputs": [],
      "name": "ApprovalToCurrentOwner",
      "type": "error"
    },
    {
      "inputs": [],
      "name": "ApproveToCaller",
      "type": "error"
    },
    {
      "inputs": [],
      "name": "BalanceQueryForZeroAddress",
      "type": "error"
    },
    {
      "inputs": [],
      "name": "MintToZeroAddress",
      "type": "error"
    },
    {
      "inputs": [],
      "name": "MintZeroQuantity",
      "type": "error"
    },
    {
      "inputs": [],
      "name": "OwnerQueryForNonexistentToken",
      "type": "error"
    },
    {
      "inputs": [],
      "name": "TransferCallerNotOwnerNorApproved",
      "type": "error"
    },
    {
      "inputs": [],
      "name": "TransferFromIncorrectOwner",
      "type": "error"
    },
    {
      "inputs": [],
      "name": "TransferToNonERC721ReceiverImplementer",
      "type": "error"
    },
    {
      "inputs": [],
      "name": "TransferToZeroAddress",
      "type": "error"
    },
    {
      "inputs": [],
      "name": "URIQueryForNonexistentToken",
      "type": "error"
    },
    {
      "anonymous": false,
      "inputs": [
        {
          "indexed": true,
          "internalType": "address",
          "name": "owner",
          "type": "address"
        },
        {
          "indexed": true,
          "internalType": "address",
          "name": "approved",
          "type": "address"
        },
        {
          "indexed": true,
          "internalType": "uint256",
          "name": "tokenId",
          "type": "uint256"
        }
      ],
      "name": "Approval",
      "type": "event"
    },
    {
      "anonymous": false,
      "inputs": [
        {
          "indexed": true,
          "internalType": "address",
          "name": "owner",
          "type": "address"
        },
        {
          "indexed": true,
          "internalType": "address",
          "name": "operator",
          "type": "address"
        },
        {
          "indexed": false,
          "internalType": "bool",
          "name": "approved",
          "type": "bool"
        }
      ],
      "name": "ApprovalForAll",
      "type": "event"
    },
    {
      "anonymous": false,
      "inputs": [
        {
          "indexed": true,
          "internalType": "address",
          "name": "from",
          "type": "address"
        },
        {
          "indexed": true,
          "internalType": "address",
          "name": "to",
          "type": "address"
        },
        {
          "indexed": true,
          "internalType": "uint256",
          "name": "tokenId",
          "type": "uint256"
        }
      ],
      "name": "Transfer",
      "type": "event"
    },
    {
      "inputs": [
        {
          "internalType": "address",
          "name": "to",
          "type": "address"
        },
        {
          "internalType": "uint256",
          "name": "tokenId",
          "type": "uint256"
        }
      ],
      "name": "approve",
      "outputs": [],
      "stateMutability": "nonpayable",
      "type": "function"
    },
    {
      "inputs": [
        {
          "internalType": "address",
          "name": "owner",
          "type": "address"
        }
      ],
      "name": "balanceOf",
      "outputs": [
        {
          "internalType": "uint256",
          "name": "",
          "type": "uint256"
        }
      ],
      "stateMutability": "view",
      "type": "function"
    },
    {
      "inputs": [
        {
          "internalType": "uint256",
          "name": "tokenId",
          "type": "uint256"
        }
      ],
      "name": "getApproved",
      "outputs": [
        {
          "internalType": "address",
          "name": "",
          "type": "address"
        }
      ],
      "stateMutability": "view",
      "type": "function"
    },
    {
      "inputs": [
        {
          "internalType": "address",
          "name": "owner",
          "type": "address"
        },
        {
          "internalType": "address",
          "name": "operator",
          "type": "address"
        }
      ],
      "name": "isApprovedForAll",
      "outputs": [
        {
          "internalType": "bool",
          "name": "",
          "type": "bool"
        }
      ],
      "stateMutability": "view",
      "type": "function"
    },
    {
      "inputs": [
        {
          "internalType": "address",
          "name": "to",
          "type": "address"
        }
      ],
      "name": "mintOne",
      "outputs": [],
      "stateMutability": "nonpayable",
      "type": "function"
    },
    {
      "inputs": [
        {
          "internalType": "address",
          "name": "to",
          "type": "address"
        }
      ],
      "name": "mintTen",
      "outputs": [],
      "stateMutability": "nonpayable",
      "type": "function"
    },
    {
      "inputs": [],
      "name": "mintedSoFar",
      "outputs": [
        {
          "internalType": "uint256",
          "name": "",
          "type": "uint256"
        }
      ],
      "stateMutability": "view",
      "type": "function"
    },
    {
      "inputs": [],
      "name": "name",
      "outputs": [
        {
          "internalType": "string",
          "name": "",
          "type": "string"
        }
      ],
      "stateMutability": "view",
      "type": "function"
    },
    {
      "inputs": [
        {
          "internalType": "uint256",
          "name": "tokenId",
          "type": "uint256"
        }
      ],
      "name": "ownerOf",
      "outputs": [
        {
          "internalType": "address",
          "name": "",
          "type": "address"
        }
      ],
      "stateMutability": "view",
      "type": "function"
    },
    {
      "inputs": [
        {
          "internalType": "address",
          "name": "to",
          "type": "address"
        }
      ],
      "name": "safeMintOne",
      "outputs": [],
      "stateMutability": "nonpayable",
      "type": "function"
    },
    {
      "inputs": [
        {
          "internalType": "address",
          "name": "to",
          "type": "address"
        }
      ],
      "name": "safeMintTen",
      "outputs": [],
      "stateMutability": "nonpayable",
      "type": "function"
    },
    {
      "inputs": [
        {
          "internalType": "address",
          "name": "from",
          "type": "address"
        },
        {
          "internalType": "address",
          "name": "to",
          "type": "address"
        },
        {
          "internalType": "uint256",
          "name": "tokenId",
          "type": "uint256"
        }
      ],
      "name": "safeTransferFrom",
      "outputs": [],
      "stateMutability": "nonpayable",
      "type": "function"
    },
    {
      "inputs": [
        {
          "internalType": "address",
          "name": "from",
          "type": "address"
        },
        {
          "internalType": "address",
          "name": "to",
          "type": "address"
        },
        {
          "internalType": "uint256",
          "name": "tokenId",
          "type": "uint256"
        },
        {
          "internalType": "bytes",
          "name": "_data",
          "type": "bytes"
        }
      ],
      "name": "safeTransferFrom",
      "outputs": [],
      "stateMutability": "nonpayable",
      "type": "function"
    },
    {
      "inputs": [
        {
          "internalType": "address",
          "name": "operator",
          "type": "address"
        },
        {
          "internalType": "bool",
          "name": "approved",
          "type": "bool"
        }
      ],
      "name": "setApprovalForAll",
      "outputs": [],
      "stateMutability": "nonpayable",
      "type": "function"
    },
    {
      "inputs": [
        {
          "internalType": "bytes4",
          "name": "interfaceId",
          "type": "bytes4"
        }
      ],
      "name": "supportsInterface",
      "outputs": [
        {
          "internalType": "bool",
          "name": "",
          "type": "bool"
        }
      ],
      "stateMutability": "view",
      "type": "function"
    },
    {
      "inputs": [],
      "name": "symbol",
      "outputs": [
        {
          "internalType": "string",
          "name": "",
          "type": "string"
        }
      ],
      "stateMutability": "view",
      "type": "function"
    },
    {
      "inputs": [
        {
          "internalType": "uint256",
          "name": "tokenId",
          "type": "uint256"
        }
      ],
      "name": "tokenURI",
      "outputs": [
        {
          "internalType": "string",
          "name": "",
          "type": "string"
        }
      ],
      "stateMutability": "view",
      "type": "function"
    },
    {
      "inputs": [],
      "name": "totalSupply",
      "outputs": [
        {
          "internalType": "uint256",
          "name": "",
          "type": "uint256"
        }
      ],
      "stateMutability": "view",
      "type": "function"
    },
    {
      "inputs": [
        {
          "internalType": "address",
          "name": "from",
          "type": "address"
        },
        {
          "internalType": "address",
          "name": "to",
          "type": "address"
        },
        {
          "internalType": "uint256",
          "name": "tokenId",
          "type": "uint256"
        }
      ],
      "name": "transferFrom",
      "outputs": [],
      "stateMutability": "nonpayable",
      "type": "function"
    }
  ],
  "bytecode": "0x60806040523480156200001157600080fd5b506040516200135c3803806200135c8339810160408190526200003491620001e6565b8151829082906200004d90600290602085019062000073565b5080516200006390600390602084019062000073565b5060008055506200028d92505050565b828054620000819062000250565b90600052602060002090601f016020900481019282620000a55760008555620000f0565b82601f10620000c057805160ff1916838001178555620000f0565b82800160010185558215620000f0579182015b82811115620000f0578251825591602001919060010190620000d3565b50620000fe92915062000102565b5090565b5b80821115620000fe576000815560010162000103565b634e487b7160e01b600052604160045260246000fd5b600082601f8301126200014157600080fd5b81516001600160401b03808211156200015e576200015e62000119565b604051601f8301601f19908116603f0116810190828211818310171562000189576200018962000119565b81604052838152602092508683858801011115620001a657600080fd5b600091505b83821015620001ca5785820183015181830184015290820190620001ab565b83821115620001dc5760008385830101525b9695505050505050565b60008060408385031215620001fa57600080fd5b82516001600160401b03808211156200021257600080fd5b62000220868387016200012f565b935060208501519150808211156200023757600080fd5b5062000246858286016200012f565b9150509250929050565b600181811c908216806200026557607f821691505b602082108114156200028757634e487b7160e01b600052602260045260246000fd5b50919050565b6110bf806200029d6000396000f3fe608060405234801561001057600080fd5b50600436106101515760003560e01c806381861f84116100cd578063c87b56dd11610081578063e985e9c511610066578063e985e9c5146102a4578063ef9c0bec146102e0578063fa695a97146102f357600080fd5b8063c87b56dd1461027e578063db6745f81461029157600080fd5b806395d89b41116100b257806395d89b4114610250578063a22cb46514610258578063b88d4fde1461026b57600080fd5b806381861f841461023557806393bd3da51461024857600080fd5b806318160ddd1161012457806342842e0e1161010957806342842e0e146101fc5780636352211e1461020f57806370a082311461022257600080fd5b806318160ddd146101d357806323b872dd146101e957600080fd5b806301ffc9a71461015657806306fdde031461017e578063081812fc14610193578063095ea7b3146101be575b600080fd5b610169610164366004610d27565b610306565b60405190151581526020015b60405180910390f35b610186610358565b6040516101759190610d9c565b6101a66101a1366004610daf565b6103ea565b6040516001600160a01b039091168152602001610175565b6101d16101cc366004610de4565b61042e565b005b600154600054035b604051908152602001610175565b6101d16101f7366004610e0e565b61050e565b6101d161020a366004610e0e565b61051e565b6101a661021d366004610daf565b610539565b6101db610230366004610e4a565b610544565b6101d1610243366004610e4a565b61058a565b6000546101db565b610186610598565b6101d1610266366004610e65565b6105a7565b6101d1610279366004610eb7565b61063d565b61018661028c366004610daf565b610687565b6101d161029f366004610e4a565b610719565b6101696102b2366004610f93565b6001600160a01b03918216600090815260076020908152604080832093909416825291909152205460ff1690565b6101d16102ee366004610e4a565b610724565b6101d1610301366004610e4a565b61072f565b60006301ffc9a760e01b6001600160e01b03198316148061033757506380ac58cd60e01b6001600160e01b03198316145b806103525750635b5e139f60e01b6001600160e01b03198316145b92915050565b60606002805461036790610fc6565b80601f016020809104026020016040519081016040528092919081815260200182805461039390610fc6565b80156103e05780601f106103b5576101008083540402835291602001916103e0565b820191906000526020600020905b8154815290600101906020018083116103c357829003601f168201915b5050505050905090565b60006103f58261073a565b610412576040516333d1c03960e21b815260040160405180910390fd5b506000908152600660205260409020546001600160a01b031690565b600061043982610761565b9050806001600160a01b0316836001600160a01b0316141561046e5760405163250fdee360e21b815260040160405180910390fd5b336001600160a01b038216146104a55761048881336102b2565b6104a5576040516367d9dca160e11b815260040160405180910390fd5b600082815260066020526040808220805473ffffffffffffffffffffffffffffffffffffffff19166001600160a01b0387811691821790925591518593918516917f8c5be1e5ebec7d5bd14f71427d1e84f3dd0314c0f7b2291e5b200ac8c7c3b92591a4505050565b6105198383836107c2565b505050565b6105198383836040518060200160405280600081525061063d565b600061035282610761565b600081610564576040516323d3ad8160e21b815260040160405180910390fd5b506001600160a01b031660009081526005602052604090205467ffffffffffffffff1690565b61059581600a61097f565b50565b60606003805461036790610fc6565b6001600160a01b0382163314156105d15760405163b06307db60e01b815260040160405180910390fd5b3360008181526007602090815260408083206001600160a01b03871680855290835292819020805460ff191686151590811790915590519081529192917f17307eab39ab6107e8899845ad3d59bd9653f200f220920489ca2b5937696c31910160405180910390a35050565b6106488484846107c2565b6001600160a01b0383163b15610681576106648484848461099d565b610681576040516368d2bf6b60e11b815260040160405180910390fd5b50505050565b60606106928261073a565b6106af57604051630a14c4b560e41b815260040160405180910390fd5b60006106c660408051602081019091526000815290565b90508051600014156106e75760405180602001604052806000815250610712565b806106f184610a85565b604051602001610702929190611001565b6040516020818303038152906040525b9392505050565b61059581600161097f565b61059581600a610ad4565b610595816001610ad4565b6000805482108015610352575050600090815260046020526040902054600160e01b161590565b6000816000548110156107a957600081815260046020526040902054600160e01b81166107a7575b80610712575060001901600081815260046020526040902054610789565b505b604051636f96cda160e11b815260040160405180910390fd5b60006107cd82610761565b9050836001600160a01b0316816001600160a01b0316146108005760405162a1148160e81b815260040160405180910390fd5b6000828152600660205260408120546001600160a01b0390811691908616331480610830575061083086336102b2565b8061084357506001600160a01b03821633145b90508061086357604051632ce44b5f60e11b815260040160405180910390fd5b8461088157604051633a954ecd60e21b815260040160405180910390fd5b81156108b1576000848152600660205260409020805473ffffffffffffffffffffffffffffffffffffffff191690555b6001600160a01b03868116600090815260056020908152604080832080546000190190559288168252828220805460010190558682526004905220600160e11b4260a01b87178117909155831661093657600184016000818152600460205260409020546109345760005481146109345760008181526004602052604090208490555b505b83856001600160a01b0316876001600160a01b03167fddf252ad1be2c89b69c2b068fc378daa952ba7f163c4a11628f55a4df523b3ef60405160405180910390a4505050505050565b610999828260405180602001604052806000815250610ba9565b5050565b604051630a85bd0160e11b81526000906001600160a01b0385169063150b7a02906109d2903390899088908890600401611030565b6020604051808303816000875af1925050508015610a0d575060408051601f3d908101601f19168201909252610a0a9181019061106c565b60015b610a68573d808015610a3b576040519150601f19603f3d011682016040523d82523d6000602084013e610a40565b606091505b508051610a60576040516368d2bf6b60e11b815260040160405180910390fd5b805181602001fd5b6001600160e01b031916630a85bd0160e11b149050949350505050565b604080516080810191829052607f0190826030600a8206018353600a90045b8015610ac257600183039250600a81066030018353600a9004610aa4565b50819003601f19909101908152919050565b60005482610af457604051622e076360e81b815260040160405180910390fd5b81610b125760405163b562e8dd60e01b815260040160405180910390fd5b6001600160a01b03831660009081526005602090815260408083208054680100000000000000018702019055838352600490915290204260a01b84176001841460e11b179055808083015b6040516001830192906001600160a01b038716906000907fddf252ad1be2c89b69c2b068fc378daa952ba7f163c4a11628f55a4df523b3ef908290a4808210610b5d5750600055505050565b60005483610bc957604051622e076360e81b815260040160405180910390fd5b82610be75760405163b562e8dd60e01b815260040160405180910390fd5b6001600160a01b03841660008181526005602090815260408083208054680100000000000000018902019055848352600490915290204260a01b86176001861460e11b1790558190818501903b15610cbc575b60405182906001600160a01b038816906000907fddf252ad1be2c89b69c2b068fc378daa952ba7f163c4a11628f55a4df523b3ef908290a4610c85600087848060010195508761099d565b610ca2576040516368d2bf6b60e11b815260040160405180910390fd5b808210610c3a578260005414610cb757600080fd5b610d01565b5b6040516001830192906001600160a01b038816906000907fddf252ad1be2c89b69c2b068fc378daa952ba7f163c4a11628f55a4df523b3ef908290a4808210610cbd575b5060009081556106819085838684565b6001600160e01b03198116811461059557600080fd5b600060208284031215610d3957600080fd5b813561071281610d11565b60005b83811015610d5f578181015183820152602001610d47565b838111156106815750506000910152565b60008151808452610d88816020860160208601610d44565b601f01601f19169290920160200192915050565b6020815260006107126020830184610d70565b600060208284031215610dc157600080fd5b5035919050565b80356001600160a01b0381168114610ddf57600080fd5b919050565b60008060408385031215610df757600080fd5b610e0083610dc8565b946020939093013593505050565b600080600060608486031215610e2357600080fd5b610e2c84610dc8565b9250610e3a60208501610dc8565b9150604084013590509250925092565b600060208284031215610e5c57600080fd5b61071282610dc8565b60008060408385031215610e7857600080fd5b610e8183610dc8565b915060208301358015158114610e9657600080fd5b809150509250929050565b634e487b7160e01b600052604160045260246000fd5b60008060008060808587031215610ecd57600080fd5b610ed685610dc8565b9350610ee460208601610dc8565b925060408501359150606085013567ffffffffffffffff80821115610f0857600080fd5b818701915087601f830112610f1c57600080fd5b813581811115610f2e57610f2e610ea1565b604051601f8201601f19908116603f01168101908382118183101715610f5657610f56610ea1565b816040528281528a6020848701011115610f6f57600080fd5b82602086016020830137600060208483010152809550505050505092959194509250565b60008060408385031215610fa657600080fd5b610faf83610dc8565b9150610fbd60208401610dc8565b90509250929050565b600181811c90821680610fda57607f821691505b60208210811415610ffb57634e487b7160e01b600052602260045260246000fd5b50919050565b60008351611013818460208801610d44565b835190830190611027818360208801610d44565b01949350505050565b60006001600160a01b038087168352808616602084015250836040830152608060608301526110626080830184610d70565b9695505050505050565b60006020828403121561107e57600080fd5b815161071281610d1156fea2646970667358221220362d36100afc378ebe4a6df205d1ca330d370e7f0185459192d8248829fab2f964736f6c634300080b0033",
  "linkReferences": {},
  "deployedLinkReferences": {}
}