{
  "_format": "hh-sol-artifact-1",
  "contractName": "ERC721AStartTokenIdMock",
  "sourceName": "contracts/mocks/ERC721AStartTokenIdMock.sol",
  "abi": [
    {
      "inputs": [
        {
          "internalType": "string",
          "name": "name_",
          "type": "string"
        },
        {
          "internalType": "string",
          "name": "symbol_",
          "type": "string"
        },
        {
          "internalType": "uint256",
          "name": "startTokenId_",
          "type": "uint256"
        }
      ],
      "stateMutability": "nonpayable",
      "type": "constructor"
    },
    {
      "inputs": [],
      "name": "ApprovalCallerNotOwnerNorApproved",
      "type": "error"
    },
    {
      "inputs": [],
      "name": "ApprovalQueryForNonexistentToken",
      "type": "error"
    },
    {
      "inputs": [],
      "name": "ApprovalToCurrentOwner",
      "type": "error"
    },
    {
      "inputs": [],
      "name": "ApproveToCaller",
      "type": "error"
    },
    {
      "inputs": [],
      "name": "BalanceQueryForZeroAddress",
      "type": "error"
    },
    {
      "inputs": [],
      "name": "MintToZeroAddress",
      "type": "error"
    },
    {
      "inputs": [],
      "name": "MintZeroQuantity",
      "type": "error"
    },
    {
      "inputs": [],
      "name": "OwnerQueryForNonexistentToken",
      "type": "error"
    },
    {
      "inputs": [],
      "name": "TransferCallerNotOwnerNorApproved",
      "type": "error"
    },
    {
      "inputs": [],
      "name": "TransferFromIncorrectOwner",
      "type": "error"
    },
    {
      "inputs": [],
      "name": "TransferToNonERC721ReceiverImplementer",
      "type": "error"
    },
    {
      "inputs": [],
      "name": "TransferToZeroAddress",
      "type": "error"
    },
    {
      "inputs": [],
      "name": "URIQueryForNonexistentToken",
      "type": "error"
    },
    {
      "anonymous": false,
      "inputs": [
        {
          "indexed": true,
          "internalType": "address",
          "name": "owner",
          "type": "address"
        },
        {
          "indexed": true,
          "internalType": "address",
          "name": "approved",
          "type": "address"
        },
        {
          "indexed": true,
          "internalType": "uint256",
          "name": "tokenId",
          "type": "uint256"
        }
      ],
      "name": "Approval",
      "type": "event"
    },
    {
      "anonymous": false,
      "inputs": [
        {
          "indexed": true,
          "internalType": "address",
          "name": "owner",
          "type": "address"
        },
        {
          "indexed": true,
          "internalType": "address",
          "name": "operator",
          "type": "address"
        },
        {
          "indexed": false,
          "internalType": "bool",
          "name": "approved",
          "type": "bool"
        }
      ],
      "name": "ApprovalForAll",
      "type": "event"
    },
    {
      "anonymous": false,
      "inputs": [
        {
          "indexed": true,
          "internalType": "address",
          "name": "from",
          "type": "address"
        },
        {
          "indexed": true,
          "internalType": "address",
          "name": "to",
          "type": "address"
        },
        {
          "indexed": true,
          "internalType": "uint256",
          "name": "tokenId",
          "type": "uint256"
        }
      ],
      "name": "Transfer",
      "type": "event"
    },
    {
      "inputs": [
        {
          "internalType": "address",
          "name": "to",
          "type": "address"
        },
        {
          "internalType": "uint256",
          "name": "tokenId",
          "type": "uint256"
        }
      ],
      "name": "approve",
      "outputs": [],
      "stateMutability": "nonpayable",
      "type": "function"
    },
    {
      "inputs": [
        {
          "internalType": "address",
          "name": "owner",
          "type": "address"
        }
      ],
      "name": "balanceOf",
      "outputs": [
        {
          "internalType": "uint256",
          "name": "",
          "type": "uint256"
        }
      ],
      "stateMutability": "view",
      "type": "function"
    },
    {
      "inputs": [],
      "name": "baseURI",
      "outputs": [
        {
          "internalType": "string",
          "name": "",
          "type": "string"
        }
      ],
      "stateMutability": "view",
      "type": "function"
    },
    {
      "inputs": [
        {
          "internalType": "uint256",
          "name": "tokenId",
          "type": "uint256"
        }
      ],
      "name": "burn",
      "outputs": [],
      "stateMutability": "nonpayable",
      "type": "function"
    },
    {
      "inputs": [
        {
          "internalType": "uint256",
          "name": "tokenId",
          "type": "uint256"
        },
        {
          "internalType": "bool",
          "name": "approvalCheck",
          "type": "bool"
        }
      ],
      "name": "burn",
      "outputs": [],
      "stateMutability": "nonpayable",
      "type": "function"
    },
    {
      "inputs": [
        {
          "internalType": "uint256",
          "name": "tokenId",
          "type": "uint256"
        }
      ],
      "name": "exists",
      "outputs": [
        {
          "internalType": "bool",
          "name": "",
          "type": "bool"
        }
      ],
      "stateMutability": "view",
      "type": "function"
    },
    {
      "inputs": [
        {
          "internalType": "uint256",
          "name": "tokenId",
          "type": "uint256"
        }
      ],
      "name": "getApproved",
      "outputs": [
        {
          "internalType": "address",
          "name": "",
          "type": "address"
        }
      ],
      "stateMutability": "view",
      "type": "function"
    },
    {
      "inputs": [
        {
          "internalType": "address",
          "name": "owner",
          "type": "address"
        }
      ],
      "name": "getAux",
      "outputs": [
        {
          "internalType": "uint64",
          "name": "",
          "type": "uint64"
        }
      ],
      "stateMutability": "view",
      "type": "function"
    },
    {
      "inputs": [
        {
          "internalType": "uint256",
          "name": "index",
          "type": "uint256"
        }
      ],
      "name": "getOwnershipAt",
      "outputs": [
        {
          "components": [
            {
              "internalType": "address",
              "name": "addr",
              "type": "address"
            },
            {
              "internalType": "uint64",
              "name": "startTimestamp",
              "type": "uint64"
            },
            {
              "internalType": "bool",
              "name": "burned",
              "type": "bool"
            }
          ],
          "internalType": "struct IERC721A.TokenOwnership",
          "name": "",
          "type": "tuple"
        }
      ],
      "stateMutability": "view",
      "type": "function"
    },
    {
      "inputs": [
        {
          "internalType": "uint256",
          "name": "index",
          "type": "uint256"
        }
      ],
      "name": "getOwnershipOf",
      "outputs": [
        {
          "components": [
            {
              "internalType": "address",
              "name": "addr",
              "type": "address"
            },
            {
              "internalType": "uint64",
              "name": "startTimestamp",
              "type": "uint64"
            },
            {
              "internalType": "bool",
              "name": "burned",
              "type": "bool"
            }
          ],
          "internalType": "struct IERC721A.TokenOwnership",
          "name": "",
          "type": "tuple"
        }
      ],
      "stateMutability": "view",
      "type": "function"
    },
    {
      "inputs": [
        {
          "internalType": "uint256",
          "name": "index",
          "type": "uint256"
        }
      ],
      "name": "initializeOwnershipAt",
      "outputs": [],
      "stateMutability": "nonpayable",
      "type": "function"
    },
    {
      "inputs": [
        {
          "internalType": "address",
          "name": "owner",
          "type": "address"
        },
        {
          "internalType": "address",
          "name": "operator",
          "type": "address"
        }
      ],
      "name": "isApprovedForAll",
      "outputs": [
        {
          "internalType": "bool",
          "name": "",
          "type": "bool"
        }
      ],
      "stateMutability": "view",
      "type": "function"
    },
    {
      "inputs": [
        {
          "internalType": "address",
          "name": "to",
          "type": "address"
        },
        {
          "internalType": "uint256",
          "name": "quantity",
          "type": "uint256"
        }
      ],
      "name": "mint",
      "outputs": [],
      "stateMutability": "nonpayable",
      "type": "function"
    },
    {
      "inputs": [],
      "name": "mintedSoFar",
      "outputs": [
        {
          "internalType": "uint256",
          "name": "",
          "type": "uint256"
        }
      ],
      "stateMutability": "view",
      "type": "function"
    },
    {
      "inputs": [],
      "name": "name",
      "outputs": [
        {
          "internalType": "string",
          "name": "",
          "type": "string"
        }
      ],
      "stateMutability": "view",
      "type": "function"
    },
    {
      "inputs": [],
      "name": "nextTokenId",
      "outputs": [
        {
          "internalType": "uint256",
          "name": "",
          "type": "uint256"
        }
      ],
      "stateMutability": "view",
      "type": "function"
    },
    {
      "inputs": [
        {
          "internalType": "address",
          "name": "owner",
          "type": "address"
        }
      ],
      "name": "numberMinted",
      "outputs": [
        {
          "internalType": "uint256",
          "name": "",
          "type": "uint256"
        }
      ],
      "stateMutability": "view",
      "type": "function"
    },
    {
      "inputs": [
        {
          "internalType": "uint256",
          "name": "tokenId",
          "type": "uint256"
        }
      ],
      "name": "ownerOf",
      "outputs": [
        {
          "internalType": "address",
          "name": "",
          "type": "address"
        }
      ],
      "stateMutability": "view",
      "type": "function"
    },
    {
      "inputs": [
        {
          "internalType": "address",
          "name": "to",
          "type": "address"
        },
        {
          "internalType": "uint256",
          "name": "quantity",
          "type": "uint256"
        },
        {
          "internalType": "bytes",
          "name": "_data",
          "type": "bytes"
        }
      ],
      "name": "safeMint",
      "outputs": [],
      "stateMutability": "nonpayable",
      "type": "function"
    },
    {
      "inputs": [
        {
          "internalType": "address",
          "name": "to",
          "type": "address"
        },
        {
          "internalType": "uint256",
          "name": "quantity",
          "type": "uint256"
        }
      ],
      "name": "safeMint",
      "outputs": [],
      "stateMutability": "nonpayable",
      "type": "function"
    },
    {
      "inputs": [
        {
          "internalType": "address",
          "name": "from",
          "type": "address"
        },
        {
          "internalType": "address",
          "name": "to",
          "type": "address"
        },
        {
          "internalType": "uint256",
          "name": "tokenId",
          "type": "uint256"
        }
      ],
      "name": "safeTransferFrom",
      "outputs": [],
      "stateMutability": "nonpayable",
      "type": "function"
    },
    {
      "inputs": [
        {
          "internalType": "address",
          "name": "from",
          "type": "address"
        },
        {
          "internalType": "address",
          "name": "to",
          "type": "address"
        },
        {
          "internalType": "uint256",
          "name": "tokenId",
          "type": "uint256"
        },
        {
          "internalType": "bytes",
          "name": "_data",
          "type": "bytes"
        }
      ],
      "name": "safeTransferFrom",
      "outputs": [],
      "stateMutability": "nonpayable",
      "type": "function"
    },
    {
      "inputs": [
        {
          "internalType": "address",
          "name": "operator",
          "type": "address"
        },
        {
          "internalType": "bool",
          "name": "approved",
          "type": "bool"
        }
      ],
      "name": "setApprovalForAll",
      "outputs": [],
      "stateMutability": "nonpayable",
      "type": "function"
    },
    {
      "inputs": [
        {
          "internalType": "address",
          "name": "owner",
          "type": "address"
        },
        {
          "internalType": "uint64",
          "name": "aux",
          "type": "uint64"
        }
      ],
      "name": "setAux",
      "outputs": [],
      "stateMutability": "nonpayable",
      "type": "function"
    },
    {
      "inputs": [],
      "name": "startTokenId",
      "outputs": [
        {
          "internalType": "uint256",
          "name": "",
          "type": "uint256"
        }
      ],
      "stateMutability": "view",
      "type": "function"
    },
    {
      "inputs": [
        {
          "internalType": "bytes4",
          "name": "interfaceId",
          "type": "bytes4"
        }
      ],
      "name": "supportsInterface",
      "outputs": [
        {
          "internalType": "bool",
          "name": "",
          "type": "bool"
        }
      ],
      "stateMutability": "view",
      "type": "function"
    },
    {
      "inputs": [],
      "name": "symbol",
      "outputs": [
        {
          "internalType": "string",
          "name": "",
          "type": "string"
        }
      ],
      "stateMutability": "view",
      "type": "function"
    },
    {
      "inputs": [
        {
          "internalType": "uint256",
          "name": "x",
          "type": "uint256"
        }
      ],
      "name": "toString",
      "outputs": [
        {
          "internalType": "string",
          "name": "",
          "type": "string"
        }
      ],
      "stateMutability": "pure",
      "type": "function"
    },
    {
      "inputs": [
        {
          "internalType": "uint256",
          "name": "tokenId",
          "type": "uint256"
        }
      ],
      "name": "tokenURI",
      "outputs": [
        {
          "internalType": "string",
          "name": "",
          "type": "string"
        }
      ],
      "stateMutability": "view",
      "type": "function"
    },
    {
      "inputs": [],
      "name": "totalBurned",
      "outputs": [
        {
          "internalType": "uint256",
          "name": "",
          "type": "uint256"
        }
      ],
      "stateMutability": "view",
      "type": "function"
    },
    {
      "inputs": [],
      "name": "totalMinted",
      "outputs": [
        {
          "internalType": "uint256",
          "name": "",
          "type": "uint256"
        }
      ],
      "stateMutability": "view",
      "type": "function"
    },
    {
      "inputs": [],
      "name": "totalSupply",
      "outputs": [
        {
          "internalType": "uint256",
          "name": "",
          "type": "uint256"
        }
      ],
      "stateMutability": "view",
      "type": "function"
    },
    {
      "inputs": [
        {
          "internalType": "address",
          "name": "from",
          "type": "address"
        },
        {
          "internalType": "address",
          "name": "to",
          "type": "address"
        },
        {
          "internalType": "uint256",
          "name": "tokenId",
          "type": "uint256"
        }
      ],
      "name": "transferFrom",
      "outputs": [],
      "stateMutability": "nonpayable",
      "type": "function"
    }
  ],
  "bytecode": "0x60806040523480156200001157600080fd5b5060405162001a0138038062001a018339810160408190526200003491620001f4565b6000819055825183908390829082906200005690600390602085019062000081565b5080516200006c90600490602084019062000081565b5060005460015550620002a495505050505050565b8280546200008f9062000267565b90600052602060002090601f016020900481019282620000b35760008555620000fe565b82601f10620000ce57805160ff1916838001178555620000fe565b82800160010185558215620000fe579182015b82811115620000fe578251825591602001919060010190620000e1565b506200010c92915062000110565b5090565b5b808211156200010c576000815560010162000111565b634e487b7160e01b600052604160045260246000fd5b600082601f8301126200014f57600080fd5b81516001600160401b03808211156200016c576200016c62000127565b604051601f8301601f19908116603f0116810190828211818310171562000197576200019762000127565b81604052838152602092508683858801011115620001b457600080fd5b600091505b83821015620001d85785820183015181830184015290820190620001b9565b83821115620001ea5760008385830101525b9695505050505050565b6000806000606084860312156200020a57600080fd5b83516001600160401b03808211156200022257600080fd5b62000230878388016200013d565b945060208601519150808211156200024757600080fd5b5062000256868287016200013d565b925050604084015190509250925092565b600181811c908216806200027c57607f821691505b602082108114156200029e57634e487b7160e01b600052602260045260246000fd5b50919050565b61174d80620002b46000396000f3fe608060405234801561001057600080fd5b506004361061020b5760003560e01c806370a082311161012a578063a2309ff8116100bd578063d89135cd1161008c578063e6798baa11610071578063e6798baa146104d1578063e985e9c5146104da578063f25236331461051657600080fd5b8063d89135cd146104b6578063dc33e681146104be57600080fd5b8063a2309ff814610458578063b88d4fde14610464578063bf0b175e14610477578063c87b56dd146104a357600080fd5b806395d89b41116100f957806395d89b41146104175780639fac68cb1461041f578063a144819414610432578063a22cb4651461044557600080fd5b806370a08231146103e157806375794a3c146103f45780638832e6e3146103fc57806393bd3da51461040f57600080fd5b806342966c68116101a257806353b1233d1161017157806353b1233d146103a05780636352211e146103b35780636900a3ae146103c65780636c0360eb146103d957600080fd5b806342966c68146102e0578063453ab141146102f35780634f558e791461034357806352d8a4d11461035657600080fd5b806318160ddd116101de57806318160ddd1461028d57806323b872dd146102a757806340c10f19146102ba57806342842e0e146102cd57600080fd5b806301ffc9a71461021057806306fdde0314610238578063081812fc1461024d578063095ea7b314610278575b600080fd5b61022361021e3660046112e0565b610529565b60405190151581526020015b60405180910390f35b61024061057b565b60405161022f9190611355565b61026061025b366004611368565b61060d565b6040516001600160a01b03909116815260200161022f565b61028b61028636600461139d565b610651565b005b60005460025460015403035b60405190815260200161022f565b61028b6102b53660046113c7565b610731565b61028b6102c836600461139d565b610741565b61028b6102db3660046113c7565b61074f565b61028b6102ee366004611368565b61076a565b61028b610301366004611403565b6001600160a01b0382166000908152600660205260409020805460c083901b77ffffffffffffffffffffffffffffffffffffffffffffffff9091161790555050565b610223610351366004611368565b610776565b610369610364366004611368565b610781565b6040805182516001600160a01b0316815260208084015167ffffffffffffffff16908201529181015115159082015260600161022f565b61028b6103ae366004611368565b6107a7565b6102606103c1366004611368565b6107b0565b6102406103d4366004611368565b6107bb565b6102406107c6565b6102996103ef366004611447565b6107e2565b610299610828565b61028b61040a366004611505565b610833565b600154610299565b61024061083e565b61028b61042d36600461156c565b61084d565b61028b61044036600461139d565b610857565b61028b610453366004611598565b610861565b60005460015403610299565b61028b6104723660046115c2565b6108f7565b61048a610485366004611447565b610941565b60405167ffffffffffffffff909116815260200161022f565b6102406104b1366004611368565b610962565b6102996109f4565b6102996104cc366004611447565b6109ff565b61029960005481565b6102236104e836600461162a565b6001600160a01b03918216600090815260086020908152604080832093909416825291909152205460ff1690565b610369610524366004611368565b610a2a565b60006301ffc9a760e01b6001600160e01b03198316148061055a57506380ac58cd60e01b6001600160e01b03198316145b806105755750635b5e139f60e01b6001600160e01b03198316145b92915050565b60606003805461058a90611654565b80601f01602080910402602001604051908101604052809291908181526020018280546105b690611654565b80156106035780601f106105d857610100808354040283529160200191610603565b820191906000526020600020905b8154815290600101906020018083116105e657829003601f168201915b5050505050905090565b600061061882610ab6565b610635576040516333d1c03960e21b815260040160405180910390fd5b506000908152600760205260409020546001600160a01b031690565b600061065c82610af2565b9050806001600160a01b0316836001600160a01b031614156106915760405163250fdee360e21b815260040160405180910390fd5b336001600160a01b038216146106c8576106ab81336104e8565b6106c8576040516367d9dca160e11b815260040160405180910390fd5b600082815260076020526040808220805473ffffffffffffffffffffffffffffffffffffffff19166001600160a01b0387811691821790925591518593918516917f8c5be1e5ebec7d5bd14f71427d1e84f3dd0314c0f7b2291e5b200ac8c7c3b92591a4505050565b61073c838383610b62565b505050565b61074b8282610d1f565b5050565b61073c838383604051806020016040528060008152506108f7565b61077381610df4565b50565b600061057582610ab6565b604080516060810182526000808252602082018190529181019190915261057582610dff565b61077381610e63565b600061057582610af2565b606061057582610e91565b60606107dd60408051602081019091526000815290565b905090565b600081610802576040516323d3ad8160e21b815260040160405180910390fd5b506001600160a01b031660009081526006602052604090205467ffffffffffffffff1690565b60006107dd60015490565b61073c838383610ee0565b60606004805461058a90611654565b61074b8282611047565b61074b82826111c8565b6001600160a01b03821633141561088b5760405163b06307db60e01b815260040160405180910390fd5b3360008181526008602090815260408083206001600160a01b03871680855290835292819020805460ff191686151590811790915590519081529192917f17307eab39ab6107e8899845ad3d59bd9653f200f220920489ca2b5937696c31910160405180910390a35050565b610902848484610b62565b6001600160a01b0383163b1561093b5761091e848484846111e2565b61093b576040516368d2bf6b60e11b815260040160405180910390fd5b50505050565b6001600160a01b03811660009081526006602052604081205460c01c610575565b606061096d82610ab6565b61098a57604051630a14c4b560e41b815260040160405180910390fd5b60006109a160408051602081019091526000815290565b90508051600014156109c257604051806020016040528060008152506109ed565b806109cc84610e91565b6040516020016109dd92919061168f565b6040516020818303038152906040525b9392505050565b60006107dd60025490565b6001600160a01b0381166000908152600660205260408082205467ffffffffffffffff911c16610575565b604080516060810182526000808252602082018190529181019190915261057582604080516060810182526000808252602082018190529181019190915260008281526005602052604090205461057590604080516060810182526001600160a01b038316815260a083901c67ffffffffffffffff166020820152600160e01b90921615159082015290565b600081610ac260005490565b11158015610ad1575060015482105b8015610575575050600090815260056020526040902054600160e01b161590565b60008180610aff60005490565b11610b4957600154811015610b4957600081815260056020526040902054600160e01b8116610b47575b806109ed575060001901600081815260056020526040902054610b29565b505b604051636f96cda160e11b815260040160405180910390fd5b6000610b6d82610af2565b9050836001600160a01b0316816001600160a01b031614610ba05760405162a1148160e81b815260040160405180910390fd5b6000828152600760205260408120546001600160a01b0390811691908616331480610bd05750610bd086336104e8565b80610be357506001600160a01b03821633145b905080610c0357604051632ce44b5f60e11b815260040160405180910390fd5b84610c2157604051633a954ecd60e21b815260040160405180910390fd5b8115610c51576000848152600760205260409020805473ffffffffffffffffffffffffffffffffffffffff191690555b6001600160a01b03868116600090815260066020908152604080832080546000190190559288168252828220805460010190558682526005905220600160e11b4260a01b871781179091558316610cd65760018401600081815260056020526040902054610cd4576001548114610cd45760008181526005602052604090208490555b505b83856001600160a01b0316876001600160a01b03167fddf252ad1be2c89b69c2b068fc378daa952ba7f163c4a11628f55a4df523b3ef60405160405180910390a4505050505050565b60015482610d3f57604051622e076360e81b815260040160405180910390fd5b81610d5d5760405163b562e8dd60e01b815260040160405180910390fd5b6001600160a01b03831660009081526006602090815260408083208054680100000000000000018702019055838352600590915290204260a01b84176001841460e11b179055808083015b6040516001830192906001600160a01b038716906000907fddf252ad1be2c89b69c2b068fc378daa952ba7f163c4a11628f55a4df523b3ef908290a4808210610da85750600155505050565b610773816000611047565b6040805160608101825260008082526020820181905291810191909152610575610e2883610af2565b604080516060810182526001600160a01b038316815260a083901c67ffffffffffffffff166020820152600160e01b90921615159082015290565b60008181526005602052604090205461077357610e7f81610af2565b60008281526005602052604090205550565b604080516080810191829052607f0190826030600a8206018353600a90045b8015610ece57600183039250600a81066030018353600a9004610eb0565b50819003601f19909101908152919050565b60015483610f0057604051622e076360e81b815260040160405180910390fd5b82610f1e5760405163b562e8dd60e01b815260040160405180910390fd5b6001600160a01b03841660008181526006602090815260408083208054680100000000000000018902019055848352600590915290204260a01b86176001861460e11b1790558190818501903b15610ff3575b60405182906001600160a01b038816906000907fddf252ad1be2c89b69c2b068fc378daa952ba7f163c4a11628f55a4df523b3ef908290a4610fbc60008784806001019550876111e2565b610fd9576040516368d2bf6b60e11b815260040160405180910390fd5b808210610f71578260015414610fee57600080fd5b611038565b5b6040516001830192906001600160a01b038816906000907fddf252ad1be2c89b69c2b068fc378daa952ba7f163c4a11628f55a4df523b3ef908290a4808210610ff4575b5060015561093b600085838684565b600061105283610af2565b60008481526007602052604090205490915081906001600160a01b031683156110c8576000336001600160a01b0384161480611093575061109383336104e8565b806110a657506001600160a01b03821633145b9050806110c657604051632ce44b5f60e11b815260040160405180910390fd5b505b80156110f8576000858152600760205260409020805473ffffffffffffffffffffffffffffffffffffffff191690555b6001600160a01b038216600090815260066020908152604080832080546fffffffffffffffffffffffffffffffff01905587835260059091529020600360e01b4260a01b8417179055600160e11b8316611180576001850160008181526005602052604090205461117e57600154811461117e5760008181526005602052604090208490555b505b60405185906000906001600160a01b038516907fddf252ad1be2c89b69c2b068fc378daa952ba7f163c4a11628f55a4df523b3ef908390a45050600280546001019055505050565b61074b828260405180602001604052806000815250610ee0565b604051630a85bd0160e11b81526000906001600160a01b0385169063150b7a02906112179033908990889088906004016116be565b6020604051808303816000875af1925050508015611252575060408051601f3d908101601f1916820190925261124f918101906116fa565b60015b6112ad573d808015611280576040519150601f19603f3d011682016040523d82523d6000602084013e611285565b606091505b5080516112a5576040516368d2bf6b60e11b815260040160405180910390fd5b805181602001fd5b6001600160e01b031916630a85bd0160e11b149050949350505050565b6001600160e01b03198116811461077357600080fd5b6000602082840312156112f257600080fd5b81356109ed816112ca565b60005b83811015611318578181015183820152602001611300565b8381111561093b5750506000910152565b600081518084526113418160208601602086016112fd565b601f01601f19169290920160200192915050565b6020815260006109ed6020830184611329565b60006020828403121561137a57600080fd5b5035919050565b80356001600160a01b038116811461139857600080fd5b919050565b600080604083850312156113b057600080fd5b6113b983611381565b946020939093013593505050565b6000806000606084860312156113dc57600080fd5b6113e584611381565b92506113f360208501611381565b9150604084013590509250925092565b6000806040838503121561141657600080fd5b61141f83611381565b9150602083013567ffffffffffffffff8116811461143c57600080fd5b809150509250929050565b60006020828403121561145957600080fd5b6109ed82611381565b634e487b7160e01b600052604160045260246000fd5b600082601f83011261148957600080fd5b813567ffffffffffffffff808211156114a4576114a4611462565b604051601f8301601f19908116603f011681019082821181831017156114cc576114cc611462565b816040528381528660208588010111156114e557600080fd5b836020870160208301376000602085830101528094505050505092915050565b60008060006060848603121561151a57600080fd5b61152384611381565b925060208401359150604084013567ffffffffffffffff81111561154657600080fd5b61155286828701611478565b9150509250925092565b8035801515811461139857600080fd5b6000806040838503121561157f57600080fd5b8235915061158f6020840161155c565b90509250929050565b600080604083850312156115ab57600080fd5b6115b483611381565b915061158f6020840161155c565b600080600080608085870312156115d857600080fd5b6115e185611381565b93506115ef60208601611381565b925060408501359150606085013567ffffffffffffffff81111561161257600080fd5b61161e87828801611478565b91505092959194509250565b6000806040838503121561163d57600080fd5b61164683611381565b915061158f60208401611381565b600181811c9082168061166857607f821691505b6020821081141561168957634e487b7160e01b600052602260045260246000fd5b50919050565b600083516116a18184602088016112fd565b8351908301906116b58183602088016112fd565b01949350505050565b60006001600160a01b038087168352808616602084015250836040830152608060608301526116f06080830184611329565b9695505050505050565b60006020828403121561170c57600080fd5b81516109ed816112ca56fea2646970667358221220daf8921232c99f9d7ee1f2a503faea7b5262623acaaea05b2ea2d36021ea928164736f6c634300080b0033",
  "linkReferences": {},
  "deployedLinkReferences": {}
}